{
  "address": "0x7762bbe2A009aB3B9201E46e8a56d8c7c070E3d9",
  "abi": [
    {
      "anonymous": false,
      "inputs": [
        {
          "indexed": false,
          "internalType": "address",
          "name": "token0",
          "type": "address"
        },
        {
          "indexed": false,
          "internalType": "address",
          "name": "token1",
          "type": "address"
        },
        {
          "indexed": false,
          "internalType": "uint32",
          "name": "index",
          "type": "uint32"
        },
        {
          "indexed": false,
          "internalType": "int24",
          "name": "tickLower",
          "type": "int24"
        },
        {
          "indexed": false,
          "internalType": "int24",
          "name": "tickUpper",
          "type": "int24"
        },
        {
          "indexed": false,
          "internalType": "uint24",
          "name": "fee",
          "type": "uint24"
        },
        {
          "indexed": false,
          "internalType": "address",
          "name": "pool",
          "type": "address"
        }
      ],
      "name": "PoolCreated",
      "type": "event"
    },
    {
      "inputs": [
        {
          "internalType": "address",
          "name": "tokenA",
          "type": "address"
        },
        {
          "internalType": "address",
          "name": "tokenB",
          "type": "address"
        },
        {
          "internalType": "int24",
          "name": "tickLower",
          "type": "int24"
        },
        {
          "internalType": "int24",
          "name": "tickUpper",
          "type": "int24"
        },
        {
          "internalType": "uint24",
          "name": "fee",
          "type": "uint24"
        }
      ],
      "name": "createPool",
      "outputs": [
        {
          "internalType": "address",
          "name": "pool",
          "type": "address"
        }
      ],
      "stateMutability": "nonpayable",
      "type": "function"
    },
    {
      "inputs": [
        {
          "internalType": "address",
          "name": "tokenA",
          "type": "address"
        },
        {
          "internalType": "address",
          "name": "tokenB",
          "type": "address"
        },
        {
          "internalType": "uint32",
          "name": "index",
          "type": "uint32"
        }
      ],
      "name": "getPool",
      "outputs": [
        {
          "internalType": "address",
          "name": "pool",
          "type": "address"
        }
      ],
      "stateMutability": "view",
      "type": "function"
    },
    {
      "inputs": [],
      "name": "parameters",
      "outputs": [
        {
          "internalType": "address",
          "name": "factory",
          "type": "address"
        },
        {
          "internalType": "address",
          "name": "tokenA",
          "type": "address"
        },
        {
          "internalType": "address",
          "name": "tokenB",
          "type": "address"
        },
        {
          "internalType": "int24",
          "name": "tickLower",
          "type": "int24"
        },
        {
          "internalType": "int24",
          "name": "tickUpper",
          "type": "int24"
        },
        {
          "internalType": "uint24",
          "name": "fee",
          "type": "uint24"
        }
      ],
      "stateMutability": "view",
      "type": "function"
    },
    {
      "inputs": [
        {
          "internalType": "address",
          "name": "",
          "type": "address"
        },
        {
          "internalType": "address",
          "name": "",
          "type": "address"
        },
        {
          "internalType": "uint256",
          "name": "",
          "type": "uint256"
        }
      ],
      "name": "pools",
      "outputs": [
        {
          "internalType": "address",
          "name": "",
          "type": "address"
        }
      ],
      "stateMutability": "view",
      "type": "function"
    }
  ],
  "transactionHash": "0x1bf53375931842ee3a4d022598e117613f9c4d1320b5b0ce6d0add3fb76df0ad",
  "args": [],
  "numDeployments": 1,
  "solcInputHash": "ab6acfed7a141d3f2e40f0331761601c",
  "bytecode": "0x608060405234801561001057600080fd5b5061372a806100206000396000f3fe608060405234801561001057600080fd5b506004361061004c5760003560e01c80630c2d4e4e14610051578063169c4cef1461008157806371c54fc91461009457806389035730146100a7575b600080fd5b61006461005f36600461088a565b610133565b6040516001600160a01b0390911681526020015b60405180910390f35b61006461008f3660046108f7565b61068a565b6100646100a2366004610933565b6106cf565b600054600154600280546100eb936001600160a01b039081169381169290821691600160a01b8104820b91600160b81b8204900b90600160d01b900462ffffff1686565b604080516001600160a01b03978816815295871660208701529390951692840192909252600290810b60608401520b608082015262ffffff90911660a082015260c001610078565b6000846001600160a01b0316866001600160a01b03160361016f5760405162461bcd60e51b815260040161016690610983565b60405180910390fd5b60008061017c888861080d565b6001600160a01b038083166000908152600360209081526040808320938516835292815282822080548451818402810184019095528085529597509395509093919291908301828280156101f957602002820191906000526020600020905b81546001600160a01b031681526001909101906020018083116101db575b5050505050905060005b81518110156103ba576000828281518110610220576102206109c7565b602002602001015190508860020b816001600160a01b03166359c4f9056040518163ffffffff1660e01b8152600401602060405180830381865afa15801561026c573d6000803e3d6000fd5b505050506040513d601f19601f8201168201806040525081019061029091906109dd565b60020b14801561030657508760020b816001600160a01b03166355b812a86040518163ffffffff1660e01b8152600401602060405180830381865afa1580156102dd573d6000803e3d6000fd5b505050506040513d601f19601f8201168201806040525081019061030191906109dd565b60020b145b801561037c57508662ffffff16816001600160a01b031663ddca3f436040518163ffffffff1660e01b8152600401602060405180830381865afa158015610351573d6000803e3d6000fd5b505050506040513d601f19601f820116820180604052508101906103759190610a01565b62ffffff16145b156103a757828281518110610393576103936109c7565b602002602001015195505050505050610681565b50806103b281610a1e565b915050610203565b506040518060c00160405280306001600160a01b031681526020018a6001600160a01b03168152602001896001600160a01b031681526020018860020b81526020018760020b81526020018662ffffff168152506000808201518160000160006101000a8154816001600160a01b0302191690836001600160a01b0316021790555060208201518160010160006101000a8154816001600160a01b0302191690836001600160a01b0316021790555060408201518160020160006101000a8154816001600160a01b0302191690836001600160a01b0316021790555060608201518160020160146101000a81548162ffffff021916908360020b62ffffff16021790555060808201518160020160176101000a81548162ffffff021916908360020b62ffffff16021790555060a082015181600201601a6101000a81548162ffffff021916908362ffffff1602179055509050506000838389898960405160200161055e9594939291906001600160a01b039586168152939094166020840152600291820b6040840152900b606082015262ffffff91909116608082015260a00190565b604051602081830303815290604052805190602001209050806040516105839061083e565b8190604051809103906000f59050801580156105a3573d6000803e3d6000fd5b506001600160a01b0385811660008181526003602090815260408083208986168085529083528184208054600180820183559186528486200180549789166001600160a01b03199889168117909155855488169095558054909616909555600280546001600160e81b0319168155885182519586529285019590955263ffffffff909116838201528c840b6060840152928b900b608083015262ffffff8a1660a083015260c082015290519196507fe026b1b60fa8f2d35cd0844432a7b513a5a112d8cfe2b30bc62c1c4b81373c75919081900360e00190a1505050505b95945050505050565b600360205282600052604060002060205281600052604060002081815481106106b257600080fd5b6000918252602090912001546001600160a01b0316925083915050565b6000826001600160a01b0316846001600160a01b0316036107025760405162461bcd60e51b815260040161016690610983565b6001600160a01b0384161580159061072257506001600160a01b03831615155b61075d5760405162461bcd60e51b815260206004820152600c60248201526b5a45524f5f4144445245535360a01b6044820152606401610166565b60008061076a868661080d565b6001600160a01b03808316600090815260036020908152604080832093851683529290522080549294509092509063ffffffff86169081106107ae576107ae6109c7565b6000918252602090912001546001600160a01b03169250826108045760405162461bcd60e51b815260206004820152600f60248201526e504f4f4c5f4e4f545f45584953545360881b6044820152606401610166565b50509392505050565b600080826001600160a01b0316846001600160a01b031610610830578284610833565b83835b915091509250929050565b612caf80610a4683390190565b80356001600160a01b038116811461086257600080fd5b919050565b8060020b811461087657600080fd5b50565b62ffffff8116811461087657600080fd5b600080600080600060a086880312156108a257600080fd5b6108ab8661084b565b94506108b96020870161084b565b935060408601356108c981610867565b925060608601356108d981610867565b915060808601356108e981610879565b809150509295509295909350565b60008060006060848603121561090c57600080fd5b6109158461084b565b92506109236020850161084b565b9150604084013590509250925092565b60008060006060848603121561094857600080fd5b6109518461084b565b925061095f6020850161084b565b9150604084013563ffffffff8116811461097857600080fd5b809150509250925092565b60208082526024908201527f546f6b656e4120616e6420546f6b656e422063616e6e6f74206265207468652060408201526373616d6560e01b606082015260800190565b634e487b7160e01b600052603260045260246000fd5b6000602082840312156109ef57600080fd5b81516109fa81610867565b9392505050565b600060208284031215610a1357600080fd5b81516109fa81610879565b600060018201610a3e57634e487b7160e01b600052601160045260246000fd5b506001019056fe6101406040523480156200001257600080fd5b50336001600160a01b031663890357306040518163ffffffff1660e01b815260040160c060405180830381865afa15801562000052573d6000803e3d6000fd5b505050506040513d601f19601f82011682018060405250810190620000789190620000dc565b62ffffff1660e052600290810b610120520b610100526001600160a01b0390811660c05290811660a0521660805262000168565b80516001600160a01b0381168114620000c457600080fd5b919050565b8051600281900b8114620000c457600080fd5b60008060008060008060c08789031215620000f657600080fd5b6200010187620000ac565b95506200011160208801620000ac565b94506200012160408801620000ac565b93506200013160608801620000c9565b92506200014160808801620000c9565b915060a087015162ffffff811681146200015a57600080fd5b809150509295509295509295565b60805160a05160c05160e0516101005161012051612a9c6200021360003960008181610280015281816105cf015281816111270152611dc301526000818161032c015281816105a2015281816110ef0152611e0901526000818161040d01526106670152600081816103e6015281816108bb01528181610bb60152611cd8015260008181610120015281816109ab01528181610b2f0152611a8b015260006103bf0152612a9c6000f3fe608060405234801561001057600080fd5b50600436106101165760003560e01c806360d49d53116100a2578063c45a015511610071578063c45a0155146103ba578063d21220a7146103e1578063ddca3f4314610408578063f305839914610443578063f637731d1461044c57600080fd5b806360d49d531461034e5780638db791d21461038157806390bc16931461039457806392f026ad146103a757600080fd5b80633eaf5d9f116100e95780633eaf5d9f1461023d578063461413191461026457806355b812a81461027b57806355f57510146102a257806359c4f9051461032757600080fd5b80630dfe16811461011b578063128acb081461015f57806316c19739146101875780631a68650214610212575b600080fd5b6101427f000000000000000000000000000000000000000000000000000000000000000081565b6040516001600160a01b0390911681526020015b60405180910390f35b61017261016d366004612691565b610461565b60408051928352602083019190915201610156565b6101dc610195366004612716565b6001600160a01b031660009081526004602052604090208054600282015460038301546001909301546001600160801b0380841695929493600160801b9004811692911690565b604080516001600160801b039687168152602081019590955284019290925283166060830152909116608082015260a001610156565b600154610225906001600160801b031681565b6040516001600160801b039091168152602001610156565b60005461025190600160a01b900460020b81565b60405160029190910b8152602001610156565b61026d60035481565b604051908152602001610156565b6102517f000000000000000000000000000000000000000000000000000000000000000081565b6102ee6102b0366004612716565b60046020526000908152604090208054600182015460028301546003909301546001600160801b0380841694600160801b9094048116939216919085565b604080516001600160801b039687168152948616602086015292909416918301919091526060820152608081019190915260a001610156565b6102517f000000000000000000000000000000000000000000000000000000000000000081565b61036161035c36600461274a565b610a5a565b604080516001600160801b03938416815292909116602083015201610156565b600054610142906001600160a01b031681565b6101726103a236600461278f565b610c43565b6101726103b53660046127aa565b610e60565b6101427f000000000000000000000000000000000000000000000000000000000000000081565b6101427f000000000000000000000000000000000000000000000000000000000000000081565b61042f7f000000000000000000000000000000000000000000000000000000000000000081565b60405162ffffff9091168152602001610156565b61026d60025481565b61045f61045a366004612716565b611074565b005b6000808560000361049e5760405162461bcd60e51b8152602060048201526002602482015261415360f01b60448201526064015b60405180910390fd5b866104e2576000546001600160a01b039081169086161180156104dd575073fffd8963efd1fc6a506488495d951d5263988d266001600160a01b038616105b61050d565b6000546001600160a01b0390811690861610801561050d57506401000276a36001600160a01b038616115b61053f5760405162461bcd60e51b815260206004820152600360248201526214d41360ea1b6044820152606401610495565b6040805160e08101825287815260006020820181905280546001600160a01b0316928201929092528188139190606081018a61057d57600354610581565b6002545b815260200160008152602001600081526020016000815250905060006105c67f00000000000000000000000000000000000000000000000000000000000000006111f6565b905060006105f37f00000000000000000000000000000000000000000000000000000000000000006111f6565b905060008b6106025781610604565b825b60005490915061068b906001600160a01b03168d610636578b6001600160a01b0316836001600160a01b03161161064c565b8b6001600160a01b0316836001600160a01b0316105b6106565782610658565b8b5b6001546001600160801b03168e7f00000000000000000000000000000000000000000000000000000000000000006114b1565b60c088015260a087015260808601526001600160a01b031660408501819052600080546001600160a01b031916821790556106c5906116cc565b6000805462ffffff92909216600160a01b0262ffffff60a01b1990921691909117905560c08401516001546107099190600160801b906001600160801b031661195e565b8460600181815161071a9190612823565b9052508b15610730576060840151600255610739565b60608401516003555b8415610782578360c0015184608001516107539190612823565b84518590610762908390612836565b90525060a0840151602085015161077891611a01565b60208501526107c1565b60a08401518451859061079690839061285d565b90525060c084015160808501516107bb916107b091612823565b602086015190611a27565b60208501525b8415158c1515146107e257602084015184516107dd908d612836565b6107f4565b83516107ee908c612836565b84602001515b90975095508b156108ef576000610809611a47565b604051637d241f3960e11b8152909150339063fa483e7290610835908b908b908f908f906004016128ae565b600060405180830381600087803b15801561084f57600080fd5b505af1158015610863573d6000803e3d6000fd5b5050505061086f611a47565b610879828a611b79565b11156108ad5760405162461bcd60e51b815260206004820152600360248201526249494160e81b6044820152606401610495565b60008712156108e9576108e97f00000000000000000000000000000000000000000000000000000000000000008f6108e48a6128d8565b611b94565b506109d6565b60006108f9611c94565b604051637d241f3960e11b8152909150339063fa483e7290610925908b908b908f908f906004016128ae565b600060405180830381600087803b15801561093f57600080fd5b505af1158015610953573d6000803e3d6000fd5b5050505061095f611c94565b6109698289611b79565b111561099d5760405162461bcd60e51b815260206004820152600360248201526249494160e81b6044820152606401610495565b60008812156109d4576109d47f00000000000000000000000000000000000000000000000000000000000000008f6108e48b6128d8565b505b600054600154604080518a8152602081018a90526001600160a01b03808516828401526001600160801b039093166060820152600160a01b90930460020b608084015251908f169133917fc42079f94a6350d7e6235f29174924f928cc2ac818eb64fed8004e115fbcca679181900360a00190a35050505050965096945050505050565b33600090815260046020526040812080548291906001600160801b03600160801b909104811690861611610a8e5784610aa1565b8054600160801b90046001600160801b03165b60018201549093506001600160801b0390811690851611610ac25783610ad1565b60018101546001600160801b03165b91506001600160801b03831615610b5e57805483908290601090610b06908490600160801b90046001600160801b03166128f4565b92506101000a8154816001600160801b0302191690836001600160801b03160217905550610b5e7f000000000000000000000000000000000000000000000000000000000000000087856001600160801b0316611b94565b6001600160801b03821615610be557600181018054839190600090610b8d9084906001600160801b03166128f4565b92506101000a8154816001600160801b0302191690836001600160801b03160217905550610be57f000000000000000000000000000000000000000000000000000000000000000087846001600160801b0316611b94565b604080516001600160a01b03881681526001600160801b038581166020830152841681830152905133917fd180a977ce9f029a7ec05d2c280a2eea13167dd64eeae88a1758af2f586d7cc4919081900360600190a250935093915050565b6000806000836001600160801b031611610caa5760405162461bcd60e51b815260206004820152602260248201527f4275726e20416d6f756e74206d7573742062652067726561746572207468616e604482015261020360f41b6064820152608401610495565b336000908152600460205260409020546001600160801b039081169084161115610d165760405162461bcd60e51b815260206004820152601d60248201527f4275726e20616d6f756e742065786365656473206c69717569646974790000006044820152606401610495565b600080610d4a6040518060400160405280336001600160a01b0316815260200187610d4090612914565b600f0b9052611dab565b9150915081610d58906128d8565b9350610d63816128d8565b92506000841180610d745750600083115b15610e0d5733600090815260046020526040902054610da4908590600160801b90046001600160801b0316612943565b33600090815260046020526040902060010154610dcb9085906001600160801b0316612943565b3360009081526004602052604090206001810180546001600160801b0319166001600160801b0393841617905580548216600160801b93909216929092021790555b604080516001600160801b03871681526020810186905290810184905233907fd4885a46e0c2f00ffdf2adb97a3909fd129dc1acccead462f7e29e6f18e54ec19060600160405180910390a25050915091565b6000806000856001600160801b031611610ebc5760405162461bcd60e51b815260206004820152601d60248201527f416d6f756e74206d7573742062652067726561746572207468616e20300000006044820152606401610495565b600080610ee860405180604001604052808a6001600160a01b0316815260200189600f0b815250611dab565b90945092508391508290506000808315610f0757610f04611a47565b91505b8415610f1857610f15611c94565b90505b604051639f382e9b60e01b81523390639f382e9b90610f4190899089908d908d906004016128ae565b600060405180830381600087803b158015610f5b57600080fd5b505af1158015610f6f573d6000803e3d6000fd5b505050506000861115610fc157610f84611a47565b610f8e8388611b79565b1115610fc15760405162461bcd60e51b815260206004820152600260248201526104d360f41b6044820152606401610495565b841561100c57610fcf611c94565b610fd98287611b79565b111561100c5760405162461bcd60e51b81526020600482015260026024820152614d3160f01b6044820152606401610495565b604080513381526001600160801b038b166020820152908101879052606081018690526001600160a01b038b16907f011d4be6213866bff035f68967364cf69c5c01ff5bc23ff0a275f08a04381e6a9060800160405180910390a25050505094509492505050565b6000546001600160a01b0316156110c35760405162461bcd60e51b8152602060048201526013602482015272105b1c9958591e481a5b9a5d1a585b1a5e9959606a1b6044820152606401610495565b6110cc816116cc565b6000805462ffffff60a01b1916600160a01b62ffffff93909316830217908190557f0000000000000000000000000000000000000000000000000000000000000000600290810b92909104900b1280159061115857506000547f0000000000000000000000000000000000000000000000000000000000000000600290810b600160a01b909204900b13155b6111d45760405162461bcd60e51b815260206004820152604160248201527f7371727450726963655839362073686f756c642062652077697468696e20746860448201527f652072616e6765206f66205b7469636b4c6f7765722c207469636b55707065726064820152602960f81b608482015260a401610495565b600080546001600160a01b0319166001600160a01b0392909216919091179055565b60020b600060ff82901d80830118620d89e8811115611220576112206345c3193d60e11b84611fe9565b7001fffcb933bd6fad37aa2d162d1a5940016001821602600160801b18600282161561125c576ffff97272373d413259a46990580e213a0260801c5b600482161561127b576ffff2e50f5f656932ef12357cf3c7fdcc0260801c5b600882161561129a576fffe5caca7e10e4e61c3624eaa0941cd00260801c5b60108216156112b9576fffcb9843d60f6159c9db58835c9266440260801c5b60208216156112d8576fff973b41fa98c081472e6896dfb254c00260801c5b60408216156112f7576fff2ea16466c96a3843ec78b326b528610260801c5b6080821615611316576ffe5dee046a99a2a811c461f1969c30530260801c5b610100821615611336576ffcbe86c7900a88aedcffc83b479aa3a40260801c5b610200821615611356576ff987a7253ac413176f2b074cf7815e540260801c5b610400821615611376576ff3392b0822b70005940c7a398e4b70f30260801c5b610800821615611396576fe7159475a2c29b7443b29c7fa6e889d90260801c5b6110008216156113b6576fd097f3bdfd2022b8845ad8f792aa58250260801c5b6120008216156113d6576fa9f746462d870fdf8a65dc1f90e061e50260801c5b6140008216156113f6576f70d869a156d2a1b890bb3df62baf32f70260801c5b618000821615611416576f31be135f97d08fd981231505542fcfa60260801c5b62010000821615611437576f09aa508b5b7a84e1c677de54f3e99bc90260801c5b62020000821615611457576e5d6af8dedb81196699c329225ee6040260801c5b62040000821615611476576d2216e584f5fa1ea926041bedfe980260801c5b62080000821615611493576b048a170391f7dc42444e8fa20260801c5b60008413156114a157600019045b63ffffffff0160201c9392505050565b60008080806001600160a01b03808916908a16101581871280159061153d5760006114f1896114e38a620f4240612963565b62ffffff16620f424061195e565b90508261150a576115058c8c8c6001611ffa565b611517565b6115178b8d8c6001612083565b9550858110611528578a9650611537565b6115348c8b838661214a565b96505b50611591565b816115545761154f8b8b8b6000612083565b611561565b6115618a8c8b6000611ffa565b93508361156d896128d8565b1061157a57899550611591565b61158e8b8a6115888b6128d8565b85612196565b95505b6001600160a01b038a81169087161482156115f4578080156115b05750815b6115c6576115c1878d8c6001612083565b6115c8565b855b95508080156115d5575081155b6115eb576115e6878d8c6000611ffa565b6115ed565b845b945061163e565b8080156115fe5750815b6116145761160f8c888c6001611ffa565b611616565b855b9550808015611623575081155b611639576116348c888c6000612083565b61163b565b845b94505b811580156116535750611650896128d8565b85115b1561166457611661896128d8565b94505b81801561168357508a6001600160a01b0316876001600160a01b031614155b1561169957611692868a61297f565b93506116bd565b6116ba8662ffffff8a166116b08b620f4240612963565b62ffffff166121e2565b93505b50505095509550955095915050565b600073fffd8963efd1fc6a506488495d951d51639616826401000276a21983016001600160a01b0316111561170c5761170c6318521d4960e21b83612214565b640100000000600160c01b03602083901b1680600061172a8261222b565b60ff1690506080811061174557607f810383901c915061174f565b80607f0383901b91505b908002607f81811c60ff83811c9190911c800280831c81831c1c800280841c81841c1c800280851c81851c1c800280861c81861c1c800280871c81871c1c800280881c81881c1c800280891c81891c1c8002808a1c818a1c1c8002808b1c818b1c1c8002808c1c818c1c1c8002808d1c818d1c1c8002808e1c9c81901c9c909c1c80029c8d901c9e9d607f198f0160401b60c09190911c678000000000000000161760c19b909b1c674000000000000000169a909a1760c29990991c672000000000000000169890981760c39790971c671000000000000000169690961760c49590951c670800000000000000169490941760c59390931c670400000000000000169290921760c69190911c670200000000000000161760c79190911c670100000000000000161760c89190911c6680000000000000161760c99190911c6640000000000000161760ca9190911c6620000000000000161760cb9190911c6610000000000000161760cc9190911c6608000000000000161760cd9190911c66040000000000001617693627a301d71055774c8581026f028f6481ab7f045a5af012a19d003aa9198101608090811d906fdb2df09e81959a81455e260799a0632f8301901d600281810b9083900b1461194f57886001600160a01b0316611934826111f6565b6001600160a01b031611156119495781611951565b80611951565b815b9998505050505050505050565b6000838302816000198587098281108382030391505080841161198057600080fd5b80600003611993575082900490506119fa565b6000848688096000868103871696879004966002600389028118808a02820302808a02820302808a02820302808a02820302808a02820302808a02909103029181900381900460010186841190950394909402919094039290920491909117919091029150505b9392505050565b60008082121583611a128482612836565b925082131514611a2157600080fd5b92915050565b60008082121583611a38848261285d565b925082121514611a2157600080fd5b604080513060248083019190915282518083039091018152604490910182526020810180516001600160e01b03166370a0823160e01b1790529051600091829182917f00000000000000000000000000000000000000000000000000000000000000006001600160a01b031691611abe9190612992565b600060405180830381855afa9150503d8060008114611af9576040519150601f19603f3d011682016040523d82523d6000602084013e611afe565b606091505b5091509150818015611b1257506020815110155b611b5e5760405162461bcd60e51b815260206004820152601f60248201527f4661696c656420746f206765742062616c616e6365206f6620746f6b656e30006044820152606401610495565b80806020019051810190611b7291906129c1565b9250505090565b600082611b868382612823565b9150811015611a2157600080fd5b604080516001600160a01b038481166024830152604480830185905283518084039091018152606490920183526020820180516001600160e01b031663a9059cbb60e01b1790529151600092839290871691611bf09190612992565b6000604051808303816000865af19150503d8060008114611c2d576040519150601f19603f3d011682016040523d82523d6000602084013e611c32565b606091505b5091509150818015611c5c575080511580611c5c575080806020019051810190611c5c91906129da565b611c8d5760405162461bcd60e51b81526020600482015260026024820152612a2360f11b6044820152606401610495565b5050505050565b604080513060248083019190915282518083039091018152604490910182526020810180516001600160e01b03166370a0823160e01b1790529051600091829182917f00000000000000000000000000000000000000000000000000000000000000006001600160a01b031691611d0b9190612992565b600060405180830381855afa9150503d8060008114611d46576040519150601f19603f3d011682016040523d82523d6000602084013e611d4b565b606091505b5091509150818015611d5f57506020815110155b611b5e5760405162461bcd60e51b815260206004820152601f60248201527f4661696c656420746f206765742062616c616e6365206f6620746f6b656e31006044820152606401610495565b600080548190611df1906001600160a01b0316611de77f00000000000000000000000000000000000000000000000000000000000000006111f6565b85602001516122b8565b600054909250611e37906001600160a01b0316611e2d7f00000000000000000000000000000000000000000000000000000000000000006111f6565b85602001516122ff565b83516001600160a01b0316600090815260046020526040812060028082015490549394509092611e7f91611e6a9161297f565b83546001600160801b0316600160801b61195e565b90506000611ead8360030154600354611e98919061297f565b84546001600160801b0316600160801b61195e565b6002805490850155600380549085015590506001600160801b038216151580611edf57506000816001600160801b0316115b15611f7757825482908490601090611f08908490600160801b90046001600160801b0316612943565b92506101000a8154816001600160801b0302191690836001600160801b03160217905550808360010160008282829054906101000a90046001600160801b0316611f529190612943565b92506101000a8154816001600160801b0302191690836001600160801b031602179055505b6001546020870151611f92916001600160801b031690612333565b600180546001600160801b0319166001600160801b0392831617905583546020880151611fc3929190911690612333565b83546001600160801b0319166001600160801b0391909116179092555091939092509050565b816000528060020b60045260246000fd5b6000836001600160a01b0316856001600160a01b0316111561201a579293925b8161204e576120496001600160801b03841661203687876129f7565b6001600160a01b0316600160601b61195e565b612078565b6120786001600160801b03841661206587876129f7565b6001600160a01b0316600160601b6121e2565b90505b949350505050565b6000836001600160a01b0316856001600160a01b031611156120a3579293925b600160601b600160e01b03606084901b1660006120c087876129f7565b6001600160a01b031690506000876001600160a01b0316116120e157600080fd5b8361211357866001600160a01b03166121048383896001600160a01b031661195e565b61210e9190612a2d565b61213f565b61213f61212a8383896001600160a01b03166121e2565b886001600160a01b0316808204910615150190565b979650505050505050565b600080856001600160a01b03161161216157600080fd5b6000846001600160801b03161161217757600080fd5b816121895761204985858560016123f3565b61207885858560016124da565b600080856001600160a01b0316116121ad57600080fd5b6000846001600160801b0316116121c357600080fd5b816121d55761204985858560006124da565b61207885858560006123f3565b60006121ef84848461195e565b905081806121ff576121ff612a17565b838509156119fa57600101806119fa57600080fd5b816000526001600160a01b03811660045260246000fd5b600080821161223957600080fd5b507f0706060506020500060203020504000106050205030304010505030400000000601f6f8421084210842108cc6318c6db6d54be6001600160801b03841160071b84811c67ffffffffffffffff1060061b1784811c63ffffffff1060051b1784811c61ffff1060041b1784811c60ff1060031b1793841c1c161a1790565b60008082600f0b126122de576122d96122d48585856001612083565b6125f1565b61207b565b6122f66122d485856122ef86612914565b6000612083565b61207b906128d8565b60008082600f0b1261231b576122d96122d48585856001611ffa565b6122f66122d4858561232c86612914565b6000611ffa565b60008082600f0b12156123a0576001600160801b03831661235383612914565b61235d90856128f4565b9150816001600160801b03161061239b5760405162461bcd60e51b81526020600482015260026024820152614c5360f01b6044820152606401610495565b611a21565b6001600160801b0383166123b48385612943565b9150816001600160801b03161015611a215760405162461bcd60e51b81526020600482015260026024820152614c4160f01b6044820152606401610495565b600081156124655760006001600160a01b038411156124295761242484600160601b876001600160801b031661195e565b612440565b6124406001600160801b038616606086901b612a2d565b905061245d6124586001600160a01b03881683611b79565b612607565b91505061207b565b60006001600160a01b038411156124935761248e84600160601b876001600160801b03166121e2565b6124b0565b6124b0606085901b6001600160801b038716808204910615150190565b905080866001600160a01b0316116124c757600080fd5b61245d816001600160a01b03881661297f565b6000826000036124eb57508361207b565b600160601b600160e01b03606085901b1682156125945760006001600160a01b038716856125198282612a4f565b92506125259083612a2d565b0361255f5760006125368284612823565b905082811061255d5761255383896001600160a01b0316836121e2565b935050505061207b565b505b61258b826125808761257a6001600160a01b038c1684612a2d565b90611b79565b808204910615150190565b9250505061207b565b60006001600160a01b038716856125ab8282612a4f565b92506125b79083612a2d565b1480156125c357508082115b6125cc57600080fd5b60006125d8828461297f565b9050612553612458848a6001600160a01b0316846121e2565b6000600160ff1b821061260357600080fd5b5090565b806001600160a01b038116811461261d57600080fd5b919050565b6001600160a01b038116811461263757600080fd5b50565b801515811461263757600080fd5b60008083601f84011261265a57600080fd5b50813567ffffffffffffffff81111561267257600080fd5b60208301915083602082850101111561268a57600080fd5b9250929050565b60008060008060008060a087890312156126aa57600080fd5b86356126b581612622565b955060208701356126c58161263a565b94506040870135935060608701356126dc81612622565b9250608087013567ffffffffffffffff8111156126f857600080fd5b61270489828a01612648565b979a9699509497509295939492505050565b60006020828403121561272857600080fd5b81356119fa81612622565b80356001600160801b038116811461261d57600080fd5b60008060006060848603121561275f57600080fd5b833561276a81612622565b925061277860208501612733565b915061278660408501612733565b90509250925092565b6000602082840312156127a157600080fd5b6119fa82612733565b600080600080606085870312156127c057600080fd5b84356127cb81612622565b93506127d960208601612733565b9250604085013567ffffffffffffffff8111156127f557600080fd5b61280187828801612648565b95989497509550505050565b634e487b7160e01b600052601160045260246000fd5b80820180821115611a2157611a2161280d565b81810360008312801583831316838312821617156128565761285661280d565b5092915050565b808201828112600083128015821682158216171561287d5761287d61280d565b505092915050565b81835281816020850137506000828201602090810191909152601f909101601f19169091010190565b8481528360208201526060604082015260006128ce606083018486612885565b9695505050505050565b6000600160ff1b82016128ed576128ed61280d565b5060000390565b6001600160801b038281168282160390808211156128565761285661280d565b600081600f0b6f7fffffffffffffffffffffffffffffff19810361293a5761293a61280d565b60000392915050565b6001600160801b038181168382160190808211156128565761285661280d565b62ffffff8281168282160390808211156128565761285661280d565b81810381811115611a2157611a2161280d565b6000825160005b818110156129b35760208186018101518583015201612999565b506000920191825250919050565b6000602082840312156129d357600080fd5b5051919050565b6000602082840312156129ec57600080fd5b81516119fa8161263a565b6001600160a01b038281168282160390808211156128565761285661280d565b634e487b7160e01b600052601260045260246000fd5b600082612a4a57634e487b7160e01b600052601260045260246000fd5b500490565b8082028115828204841417611a2157611a2161280d56fea26469706673582212209b9ab2d795749868e65a399a4acf0b38e486e03788509ee65bfe05b58efcaf9964736f6c63430008140033a26469706673582212203fd741378747b57ecee9b310953233ceebe2c46095370008d74d85c5e98818e764736f6c63430008140033",
  "devdoc": {
    "kind": "dev",
    "methods": {},
    "version": 1
  },
  "userdoc": {
    "kind": "user",
    "methods": {},
    "version": 1
  },
  "storageLayout": {
    "storage": [
      {
        "astId": 87,
        "contract": "contracts/Factory.sol:Factory",
        "label": "parameters",
        "offset": 0,
        "slot": "0",
        "type": "t_struct(Parameters)1715_storage"
      },
      {
        "astId": 94,
        "contract": "contracts/Factory.sol:Factory",
        "label": "pools",
        "offset": 0,
        "slot": "3",
        "type": "t_mapping(t_address,t_mapping(t_address,t_array(t_address)dyn_storage))"
      }
    ],
    "types": {
      "t_address": {
        "encoding": "inplace",
        "label": "address",
        "numberOfBytes": "20"
      },
      "t_array(t_address)dyn_storage": {
        "base": "t_address",
        "encoding": "dynamic_array",
        "label": "address[]",
        "numberOfBytes": "32"
      },
      "t_int24": {
        "encoding": "inplace",
        "label": "int24",
        "numberOfBytes": "3"
      },
      "t_mapping(t_address,t_array(t_address)dyn_storage)": {
        "encoding": "mapping",
        "key": "t_address",
        "label": "mapping(address => address[])",
        "numberOfBytes": "32",
        "value": "t_array(t_address)dyn_storage"
      },
      "t_mapping(t_address,t_mapping(t_address,t_array(t_address)dyn_storage))": {
        "encoding": "mapping",
        "key": "t_address",
        "label": "mapping(address => mapping(address => address[]))",
        "numberOfBytes": "32",
        "value": "t_mapping(t_address,t_array(t_address)dyn_storage)"
      },
      "t_struct(Parameters)1715_storage": {
        "encoding": "inplace",
        "label": "struct IFactory.Parameters",
        "members": [
          {
            "astId": 1704,
            "contract": "contracts/Factory.sol:Factory",
            "label": "factory",
            "offset": 0,
            "slot": "0",
            "type": "t_address"
          },
          {
            "astId": 1706,
            "contract": "contracts/Factory.sol:Factory",
            "label": "tokenA",
            "offset": 0,
            "slot": "1",
            "type": "t_address"
          },
          {
            "astId": 1708,
            "contract": "contracts/Factory.sol:Factory",
            "label": "tokenB",
            "offset": 0,
            "slot": "2",
            "type": "t_address"
          },
          {
            "astId": 1710,
            "contract": "contracts/Factory.sol:Factory",
            "label": "tickLower",
            "offset": 20,
            "slot": "2",
            "type": "t_int24"
          },
          {
            "astId": 1712,
            "contract": "contracts/Factory.sol:Factory",
            "label": "tickUpper",
            "offset": 23,
            "slot": "2",
            "type": "t_int24"
          },
          {
            "astId": 1714,
            "contract": "contracts/Factory.sol:Factory",
            "label": "fee",
            "offset": 26,
            "slot": "2",
            "type": "t_uint24"
          }
        ],
        "numberOfBytes": "96"
      },
      "t_uint24": {
        "encoding": "inplace",
        "label": "uint24",
        "numberOfBytes": "3"
      }
    }
  }
}