{
  "address": "0x519F314221d1CDfbA563e1d36bDd8A265a45E502",
  "abi": [
    {
      "inputs": [
        {
          "internalType": "address",
          "name": "_poolManager",
          "type": "address"
        }
      ],
      "stateMutability": "nonpayable",
      "type": "constructor"
    },
    {
      "inputs": [
        {
          "internalType": "address",
          "name": "sender",
          "type": "address"
        },
        {
          "internalType": "uint256",
          "name": "tokenId",
          "type": "uint256"
        },
        {
          "internalType": "address",
          "name": "owner",
          "type": "address"
        }
      ],
      "name": "ERC721IncorrectOwner",
      "type": "error"
    },
    {
      "inputs": [
        {
          "internalType": "address",
          "name": "operator",
          "type": "address"
        },
        {
          "internalType": "uint256",
          "name": "tokenId",
          "type": "uint256"
        }
      ],
      "name": "ERC721InsufficientApproval",
      "type": "error"
    },
    {
      "inputs": [
        {
          "internalType": "address",
          "name": "approver",
          "type": "address"
        }
      ],
      "name": "ERC721InvalidApprover",
      "type": "error"
    },
    {
      "inputs": [
        {
          "internalType": "address",
          "name": "operator",
          "type": "address"
        }
      ],
      "name": "ERC721InvalidOperator",
      "type": "error"
    },
    {
      "inputs": [
        {
          "internalType": "address",
          "name": "owner",
          "type": "address"
        }
      ],
      "name": "ERC721InvalidOwner",
      "type": "error"
    },
    {
      "inputs": [
        {
          "internalType": "address",
          "name": "receiver",
          "type": "address"
        }
      ],
      "name": "ERC721InvalidReceiver",
      "type": "error"
    },
    {
      "inputs": [
        {
          "internalType": "address",
          "name": "sender",
          "type": "address"
        }
      ],
      "name": "ERC721InvalidSender",
      "type": "error"
    },
    {
      "inputs": [
        {
          "internalType": "uint256",
          "name": "tokenId",
          "type": "uint256"
        }
      ],
      "name": "ERC721NonexistentToken",
      "type": "error"
    },
    {
      "anonymous": false,
      "inputs": [
        {
          "indexed": true,
          "internalType": "address",
          "name": "owner",
          "type": "address"
        },
        {
          "indexed": true,
          "internalType": "address",
          "name": "approved",
          "type": "address"
        },
        {
          "indexed": true,
          "internalType": "uint256",
          "name": "tokenId",
          "type": "uint256"
        }
      ],
      "name": "Approval",
      "type": "event"
    },
    {
      "anonymous": false,
      "inputs": [
        {
          "indexed": true,
          "internalType": "address",
          "name": "owner",
          "type": "address"
        },
        {
          "indexed": true,
          "internalType": "address",
          "name": "operator",
          "type": "address"
        },
        {
          "indexed": false,
          "internalType": "bool",
          "name": "approved",
          "type": "bool"
        }
      ],
      "name": "ApprovalForAll",
      "type": "event"
    },
    {
      "anonymous": false,
      "inputs": [
        {
          "indexed": true,
          "internalType": "address",
          "name": "from",
          "type": "address"
        },
        {
          "indexed": true,
          "internalType": "address",
          "name": "to",
          "type": "address"
        },
        {
          "indexed": true,
          "internalType": "uint256",
          "name": "tokenId",
          "type": "uint256"
        }
      ],
      "name": "Transfer",
      "type": "event"
    },
    {
      "inputs": [
        {
          "internalType": "address",
          "name": "to",
          "type": "address"
        },
        {
          "internalType": "uint256",
          "name": "tokenId",
          "type": "uint256"
        }
      ],
      "name": "approve",
      "outputs": [],
      "stateMutability": "nonpayable",
      "type": "function"
    },
    {
      "inputs": [
        {
          "internalType": "address",
          "name": "owner",
          "type": "address"
        }
      ],
      "name": "balanceOf",
      "outputs": [
        {
          "internalType": "uint256",
          "name": "",
          "type": "uint256"
        }
      ],
      "stateMutability": "view",
      "type": "function"
    },
    {
      "inputs": [
        {
          "internalType": "uint256",
          "name": "positionId",
          "type": "uint256"
        }
      ],
      "name": "burn",
      "outputs": [
        {
          "internalType": "uint256",
          "name": "amount0",
          "type": "uint256"
        },
        {
          "internalType": "uint256",
          "name": "amount1",
          "type": "uint256"
        }
      ],
      "stateMutability": "nonpayable",
      "type": "function"
    },
    {
      "inputs": [
        {
          "internalType": "uint256",
          "name": "positionId",
          "type": "uint256"
        },
        {
          "internalType": "address",
          "name": "recipient",
          "type": "address"
        }
      ],
      "name": "collect",
      "outputs": [
        {
          "internalType": "uint256",
          "name": "amount0",
          "type": "uint256"
        },
        {
          "internalType": "uint256",
          "name": "amount1",
          "type": "uint256"
        }
      ],
      "stateMutability": "nonpayable",
      "type": "function"
    },
    {
      "inputs": [],
      "name": "getAllPositions",
      "outputs": [
        {
          "components": [
            {
              "internalType": "uint256",
              "name": "id",
              "type": "uint256"
            },
            {
              "internalType": "address",
              "name": "owner",
              "type": "address"
            },
            {
              "internalType": "address",
              "name": "token0",
              "type": "address"
            },
            {
              "internalType": "address",
              "name": "token1",
              "type": "address"
            },
            {
              "internalType": "uint32",
              "name": "index",
              "type": "uint32"
            },
            {
              "internalType": "uint24",
              "name": "fee",
              "type": "uint24"
            },
            {
              "internalType": "uint128",
              "name": "liquidity",
              "type": "uint128"
            },
            {
              "internalType": "int24",
              "name": "tickLower",
              "type": "int24"
            },
            {
              "internalType": "int24",
              "name": "tickUpper",
              "type": "int24"
            },
            {
              "internalType": "uint128",
              "name": "tokensOwed0",
              "type": "uint128"
            },
            {
              "internalType": "uint128",
              "name": "tokensOwed1",
              "type": "uint128"
            },
            {
              "internalType": "uint256",
              "name": "feeGrowthInside0LastX128",
              "type": "uint256"
            },
            {
              "internalType": "uint256",
              "name": "feeGrowthInside1LastX128",
              "type": "uint256"
            }
          ],
          "internalType": "struct IPositionManager.PositionInfo[]",
          "name": "positionInfo",
          "type": "tuple[]"
        }
      ],
      "stateMutability": "view",
      "type": "function"
    },
    {
      "inputs": [
        {
          "internalType": "uint256",
          "name": "tokenId",
          "type": "uint256"
        }
      ],
      "name": "getApproved",
      "outputs": [
        {
          "internalType": "address",
          "name": "",
          "type": "address"
        }
      ],
      "stateMutability": "view",
      "type": "function"
    },
    {
      "inputs": [],
      "name": "getSender",
      "outputs": [
        {
          "internalType": "address",
          "name": "",
          "type": "address"
        }
      ],
      "stateMutability": "view",
      "type": "function"
    },
    {
      "inputs": [
        {
          "internalType": "address",
          "name": "owner",
          "type": "address"
        },
        {
          "internalType": "address",
          "name": "operator",
          "type": "address"
        }
      ],
      "name": "isApprovedForAll",
      "outputs": [
        {
          "internalType": "bool",
          "name": "",
          "type": "bool"
        }
      ],
      "stateMutability": "view",
      "type": "function"
    },
    {
      "inputs": [
        {
          "components": [
            {
              "internalType": "address",
              "name": "token0",
              "type": "address"
            },
            {
              "internalType": "address",
              "name": "token1",
              "type": "address"
            },
            {
              "internalType": "uint32",
              "name": "index",
              "type": "uint32"
            },
            {
              "internalType": "uint256",
              "name": "amount0Desired",
              "type": "uint256"
            },
            {
              "internalType": "uint256",
              "name": "amount1Desired",
              "type": "uint256"
            },
            {
              "internalType": "address",
              "name": "recipient",
              "type": "address"
            },
            {
              "internalType": "uint256",
              "name": "deadline",
              "type": "uint256"
            }
          ],
          "internalType": "struct IPositionManager.MintParams",
          "name": "params",
          "type": "tuple"
        }
      ],
      "name": "mint",
      "outputs": [
        {
          "internalType": "uint256",
          "name": "positionId",
          "type": "uint256"
        },
        {
          "internalType": "uint128",
          "name": "liquidity",
          "type": "uint128"
        },
        {
          "internalType": "uint256",
          "name": "amount0",
          "type": "uint256"
        },
        {
          "internalType": "uint256",
          "name": "amount1",
          "type": "uint256"
        }
      ],
      "stateMutability": "payable",
      "type": "function"
    },
    {
      "inputs": [
        {
          "internalType": "uint256",
          "name": "amount0",
          "type": "uint256"
        },
        {
          "internalType": "uint256",
          "name": "amount1",
          "type": "uint256"
        },
        {
          "internalType": "bytes",
          "name": "data",
          "type": "bytes"
        }
      ],
      "name": "mintCallback",
      "outputs": [],
      "stateMutability": "nonpayable",
      "type": "function"
    },
    {
      "inputs": [],
      "name": "name",
      "outputs": [
        {
          "internalType": "string",
          "name": "",
          "type": "string"
        }
      ],
      "stateMutability": "view",
      "type": "function"
    },
    {
      "inputs": [
        {
          "internalType": "uint256",
          "name": "tokenId",
          "type": "uint256"
        }
      ],
      "name": "ownerOf",
      "outputs": [
        {
          "internalType": "address",
          "name": "",
          "type": "address"
        }
      ],
      "stateMutability": "view",
      "type": "function"
    },
    {
      "inputs": [],
      "name": "poolManager",
      "outputs": [
        {
          "internalType": "contract IPoolManager",
          "name": "",
          "type": "address"
        }
      ],
      "stateMutability": "view",
      "type": "function"
    },
    {
      "inputs": [
        {
          "internalType": "uint256",
          "name": "",
          "type": "uint256"
        }
      ],
      "name": "positions",
      "outputs": [
        {
          "internalType": "uint256",
          "name": "id",
          "type": "uint256"
        },
        {
          "internalType": "address",
          "name": "owner",
          "type": "address"
        },
        {
          "internalType": "address",
          "name": "token0",
          "type": "address"
        },
        {
          "internalType": "address",
          "name": "token1",
          "type": "address"
        },
        {
          "internalType": "uint32",
          "name": "index",
          "type": "uint32"
        },
        {
          "internalType": "uint24",
          "name": "fee",
          "type": "uint24"
        },
        {
          "internalType": "uint128",
          "name": "liquidity",
          "type": "uint128"
        },
        {
          "internalType": "int24",
          "name": "tickLower",
          "type": "int24"
        },
        {
          "internalType": "int24",
          "name": "tickUpper",
          "type": "int24"
        },
        {
          "internalType": "uint128",
          "name": "tokensOwed0",
          "type": "uint128"
        },
        {
          "internalType": "uint128",
          "name": "tokensOwed1",
          "type": "uint128"
        },
        {
          "internalType": "uint256",
          "name": "feeGrowthInside0LastX128",
          "type": "uint256"
        },
        {
          "internalType": "uint256",
          "name": "feeGrowthInside1LastX128",
          "type": "uint256"
        }
      ],
      "stateMutability": "view",
      "type": "function"
    },
    {
      "inputs": [
        {
          "internalType": "address",
          "name": "from",
          "type": "address"
        },
        {
          "internalType": "address",
          "name": "to",
          "type": "address"
        },
        {
          "internalType": "uint256",
          "name": "tokenId",
          "type": "uint256"
        }
      ],
      "name": "safeTransferFrom",
      "outputs": [],
      "stateMutability": "nonpayable",
      "type": "function"
    },
    {
      "inputs": [
        {
          "internalType": "address",
          "name": "from",
          "type": "address"
        },
        {
          "internalType": "address",
          "name": "to",
          "type": "address"
        },
        {
          "internalType": "uint256",
          "name": "tokenId",
          "type": "uint256"
        },
        {
          "internalType": "bytes",
          "name": "data",
          "type": "bytes"
        }
      ],
      "name": "safeTransferFrom",
      "outputs": [],
      "stateMutability": "nonpayable",
      "type": "function"
    },
    {
      "inputs": [
        {
          "internalType": "address",
          "name": "operator",
          "type": "address"
        },
        {
          "internalType": "bool",
          "name": "approved",
          "type": "bool"
        }
      ],
      "name": "setApprovalForAll",
      "outputs": [],
      "stateMutability": "nonpayable",
      "type": "function"
    },
    {
      "inputs": [
        {
          "internalType": "bytes4",
          "name": "interfaceId",
          "type": "bytes4"
        }
      ],
      "name": "supportsInterface",
      "outputs": [
        {
          "internalType": "bool",
          "name": "",
          "type": "bool"
        }
      ],
      "stateMutability": "view",
      "type": "function"
    },
    {
      "inputs": [],
      "name": "symbol",
      "outputs": [
        {
          "internalType": "string",
          "name": "",
          "type": "string"
        }
      ],
      "stateMutability": "view",
      "type": "function"
    },
    {
      "inputs": [
        {
          "internalType": "uint256",
          "name": "tokenId",
          "type": "uint256"
        }
      ],
      "name": "tokenURI",
      "outputs": [
        {
          "internalType": "string",
          "name": "",
          "type": "string"
        }
      ],
      "stateMutability": "view",
      "type": "function"
    },
    {
      "inputs": [
        {
          "internalType": "address",
          "name": "from",
          "type": "address"
        },
        {
          "internalType": "address",
          "name": "to",
          "type": "address"
        },
        {
          "internalType": "uint256",
          "name": "tokenId",
          "type": "uint256"
        }
      ],
      "name": "transferFrom",
      "outputs": [],
      "stateMutability": "nonpayable",
      "type": "function"
    }
  ],
  "transactionHash": "0x67542dd7dada94027f4ab27d530f431db0adf98e224aef92055d028e5b360b36",
  "args": [
    "0x0e811D498E25EA01A52229dad2Fbb95636460895"
  ],
  "numDeployments": 1,
  "solcInputHash": "91fb65fde7a7cae1feab5ff71303a381",
  "bytecode": "0x608060405260016007553480156200001657600080fd5b5060405162002fb238038062002fb28339810160408190526200003991620000c8565b6040518060400160405280601081526020016f26b2ba30a9bbb0b82837b9b4ba34b7b760811b8152506040518060400160405280600381526020016204d53560ec1b81525081600090816200008f91906200019f565b5060016200009e82826200019f565b5050600680546001600160a01b0319166001600160a01b039390931692909217909155506200026b565b600060208284031215620000db57600080fd5b81516001600160a01b0381168114620000f357600080fd5b9392505050565b634e487b7160e01b600052604160045260246000fd5b600181811c908216806200012557607f821691505b6020821081036200014657634e487b7160e01b600052602260045260246000fd5b50919050565b601f8211156200019a57600081815260208120601f850160051c81016020861015620001755750805b601f850160051c820191505b81811015620001965782815560010162000181565b5050505b505050565b81516001600160401b03811115620001bb57620001bb620000fa565b620001d381620001cc845462000110565b846200014c565b602080601f8311600181146200020b5760008415620001f25750858301515b600019600386901b1c1916600185901b17855562000196565b600085815260208120601f198616915b828110156200023c578886015182559484019460019091019084016200021b565b50858210156200025b5787850151600019600388901b60f8161c191681555b5050505050600190811b01905550565b612d37806200027b6000396000f3fe60806040526004361061012a5760003560e01c80636352211e116100ab5780639f382e9b1161006f5780639f382e9b14610413578063a22cb46514610433578063b88d4fde14610453578063c87b56dd14610473578063dc4c90d314610493578063e985e9c5146104b357600080fd5b80636352211e146102c557806370a08231146102e55780638d3c100a1461031357806395d89b411461033357806399fbab881461034857600080fd5b806323b872dd116100f257806323b872dd146102025780632c6cc6c71461022257806342842e0e1461025d57806342966c681461027d5780635e01eb5a146102b257600080fd5b806301ffc9a71461012f57806306fdde0314610164578063081812fc14610186578063095ea7b3146101be57806318f56a0a146101e0575b600080fd5b34801561013b57600080fd5b5061014f61014a366004612427565b6104d3565b60405190151581526020015b60405180910390f35b34801561017057600080fd5b50610179610525565b60405161015b9190612494565b34801561019257600080fd5b506101a66101a13660046124a7565b6105b7565b6040516001600160a01b03909116815260200161015b565b3480156101ca57600080fd5b506101de6101d93660046124d5565b6105e0565b005b3480156101ec57600080fd5b506101f56105ef565b60405161015b9190612501565b34801561020e57600080fd5b506101de61021d366004612614565b6107f6565b610235610230366004612655565b610886565b604080519485526001600160801b03909316602085015291830152606082015260800161015b565b34801561026957600080fd5b506101de610278366004612614565b61103b565b34801561028957600080fd5b5061029d6102983660046124a7565b61105b565b6040805192835260208301919091520161015b565b3480156102be57600080fd5b50336101a6565b3480156102d157600080fd5b506101a66102e03660046124a7565b611361565b3480156102f157600080fd5b5061030561030036600461266d565b61136c565b60405190815260200161015b565b34801561031f57600080fd5b5061029d61032e36600461268a565b6113b4565b34801561033f57600080fd5b5061017961156d565b34801561035457600080fd5b506103fa6103633660046124a7565b600860205260009081526040902080546001820154600280840154600385015460048601546005870154600688015460079098015496976001600160a01b039687169794871696841695600160a01b850463ffffffff1695600160c01b90950462ffffff16946001600160801b0380861695600160801b808204850b96600160981b90920490940b9482821694909104909116918d565b60405161015b9d9c9b9a999897969594939291906126ba565b34801561041f57600080fd5b506101de61042e366004612763565b61157c565b34801561043f57600080fd5b506101de61044e3660046127f1565b611777565b34801561045f57600080fd5b506101de61046e366004612835565b611782565b34801561047f57600080fd5b5061017961048e3660046124a7565b61179a565b34801561049f57600080fd5b506006546101a6906001600160a01b031681565b3480156104bf57600080fd5b5061014f6104ce366004612915565b61180f565b60006001600160e01b031982166380ac58cd60e01b148061050457506001600160e01b03198216635b5e139f60e01b145b8061051f57506301ffc9a760e01b6001600160e01b03198316145b92915050565b60606000805461053490612943565b80601f016020809104026020016040519081016040528092919081815260200182805461056090612943565b80156105ad5780601f10610582576101008083540402835291602001916105ad565b820191906000526020600020905b81548152906001019060200180831161059057829003601f168201915b5050505050905090565b60006105c28261183d565b506000828152600460205260409020546001600160a01b031661051f565b6105eb828233611876565b5050565b60606001600754610600919061298d565b67ffffffffffffffff8111156106185761061861281f565b6040519080825280602002602001820160405280156106af57816020015b604080516101a08101825260008082526020808301829052928201819052606082018190526080820181905260a0820181905260c0820181905260e08201819052610100820181905261012082018190526101408201819052610160820181905261018082015282526000199092019101816106365790505b50905060005b60016007546106c4919061298d565b8163ffffffff1610156107f257600860006106e08360016129a0565b63ffffffff9081168252602080830193909352604091820160002082516101a0810184528154815260018201546001600160a01b039081169582019590955260028083015486169482019490945260038201549485166060820152600160a01b850483166080820152600160c01b90940462ffffff1660a085015260048101546001600160801b0380821660c0870152600160801b808304860b60e0880152600160981b90920490940b61010086015260058201548085166101208701520490921661014084015260068201546101608401526007909101546101808301528351849184169081106107d4576107d46129c4565b602002602001018190525080806107ea906129da565b9150506106b5565b5090565b6001600160a01b03821661082557604051633250574960e11b8152600060048201526024015b60405180910390fd5b6000610832838333611883565b9050836001600160a01b0316816001600160a01b031614610880576040516364283d7b60e01b81526001600160a01b038086166004830152602482018490528216604482015260640161081c565b50505050565b600080808060c0850135428110156108d65760405162461bcd60e51b8152602060048201526013602482015272151c985b9cd858dd1a5bdb881d1bdbc81bdb19606a1b604482015260640161081c565b6006546000906001600160a01b03166371c54fc96108f760208a018a61266d565b61090760408b0160208c0161266d565b61091760608c0160408d01612a11565b6040518463ffffffff1660e01b815260040161093593929190612a2c565b602060405180830381865afa158015610952573d6000803e3d6000fd5b505050506040513d601f19601f820116820180604052508101906109769190612a55565b905060008190506000816001600160a01b0316638db791d26040518163ffffffff1660e01b8152600401602060405180830381865afa1580156109bd573d6000803e3d6000fd5b505050506040513d601f19601f820116820180604052508101906109e19190612a55565b90506000610a4f836001600160a01b03166359c4f9056040518163ffffffff1660e01b8152600401602060405180830381865afa158015610a26573d6000803e3d6000fd5b505050506040513d601f19601f82011682018060405250810190610a4a9190612a72565b61197c565b90506000610a94846001600160a01b03166355b812a86040518163ffffffff1660e01b8152600401602060405180830381865afa158015610a26573d6000803e3d6000fd5b9050610aab8383838e606001358f60800135611c37565b98506000610abc60208d018d61266d565b610acc60408e0160208f0161266d565b8d6040016020810190610adf9190612a11565b604080516001600160a01b039485166020820152939092169183019190915263ffffffff16606082015233608082015260a00160408051601f19818403018152908290526392f026ad60e01b825291506001600160a01b038616906392f026ad90610b529030908e908690600401612a95565b60408051808303816000875af1158015610b70573d6000803e3d6000fd5b505050506040513d601f19601f82011682018060405250810190610b949190612ac8565b9099509750610bc8610bac60c08e0160a08f0161266d565b60078054906000610bbc83612aec565b919050559c508c611cfb565b6040516316c1973960e01b815230600482015260009081906001600160a01b038816906316c197399060240160a060405180830381865afa158015610c11573d6000803e3d6000fd5b505050506040513d601f19601f82011682018060405250810190610c359190612b1c565b50509250925050604051806101a001604052808e81526020018f60a0016020810190610c61919061266d565b6001600160a01b031681526020018f6000016020810190610c82919061266d565b6001600160a01b031681526020018f6020016020810190610ca3919061266d565b6001600160a01b031681526020018f6040016020810190610cc49190612a11565b63ffffffff168152602001886001600160a01b031663ddca3f436040518163ffffffff1660e01b8152600401602060405180830381865afa158015610d0d573d6000803e3d6000fd5b505050506040513d601f19601f82011682018060405250810190610d319190612b73565b62ffffff1681526020018d6001600160801b03168152602001886001600160a01b03166359c4f9056040518163ffffffff1660e01b8152600401602060405180830381865afa158015610d88573d6000803e3d6000fd5b505050506040513d601f19601f82011682018060405250810190610dac9190612a72565b60020b8152602001886001600160a01b03166355b812a86040518163ffffffff1660e01b8152600401602060405180830381865afa158015610df2573d6000803e3d6000fd5b505050506040513d601f19601f82011682018060405250810190610e169190612a72565b60020b815260200160006001600160801b0316815260200160006001600160801b0316815260200183815260200182815250600860008f81526020019081526020016000206000820151816000015560208201518160010160006101000a8154816001600160a01b0302191690836001600160a01b0316021790555060408201518160020160006101000a8154816001600160a01b0302191690836001600160a01b0316021790555060608201518160030160006101000a8154816001600160a01b0302191690836001600160a01b0316021790555060808201518160030160146101000a81548163ffffffff021916908363ffffffff16021790555060a08201518160030160186101000a81548162ffffff021916908362ffffff16021790555060c08201518160040160006101000a8154816001600160801b0302191690836001600160801b0316021790555060e08201518160040160106101000a81548162ffffff021916908360020b62ffffff1602179055506101008201518160040160136101000a81548162ffffff021916908360020b62ffffff1602179055506101208201518160050160006101000a8154816001600160801b0302191690836001600160801b031602179055506101408201518160050160106101000a8154816001600160801b0302191690836001600160801b03160217905550610160820151816006015561018082015181600701559050505050505050505050509193509193565b61105683838360405180602001604052806000815250611782565b505050565b60008082600061106a82611361565b9050611077813384611d60565b6110b25760405162461bcd60e51b815260206004820152600c60248201526b139bdd08185c1c1c9bdd995960a21b604482015260640161081c565b6000858152600860205260408082206004808201546006546002840154600385015495516371c54fc960e01b815294966001600160801b039093169592946001600160a01b03928316946371c54fc9946111229493841693811692600160a01b90910463ffffffff169101612a2c565b602060405180830381865afa15801561113f573d6000803e3d6000fd5b505050506040513d601f19601f820116820180604052508101906111639190612a55565b6040516390bc169360e01b81526001600160801b038416600482015290915081906001600160a01b038216906390bc16939060240160408051808303816000875af11580156111b6573d6000803e3d6000fd5b505050506040513d601f19601f820116820180604052508101906111da9190612ac8565b6040516316c1973960e01b8152306004820152919950975060009081906001600160a01b038416906316c197399060240160a060405180830381865afa158015611228573d6000803e3d6000fd5b505050506040513d601f19601f8201168201806040525081019061124c9190612b1c565b5050925092505061127e866006015483611266919061298d565b60048801546001600160801b0316600160801b611dc6565b611288908b612b98565b6005870180546000906112a59084906001600160801b0316612b98565b92506101000a8154816001600160801b0302191690836001600160801b031602179055506112dc866007015482611266919061298d565b6112e6908a612b98565b60058701805460109061130a908490600160801b90046001600160801b0316612b98565b82546001600160801b039182166101009390930a9283029190920219909116179055506006860191909155600785015550505060040180546fffffffffffffffffffffffffffffffff191690555091939092509050565b600061051f8261183d565b60006001600160a01b038216611398576040516322718ad960e21b81526000600482015260240161081c565b506001600160a01b031660009081526003602052604090205490565b6000808360006113c382611361565b90506113d0813384611d60565b61140b5760405162461bcd60e51b815260206004820152600c60248201526b139bdd08185c1c1c9bdd995960a21b604482015260640161081c565b6000868152600860205260408082206006546002820154600383015493516371c54fc960e01b81529294936001600160a01b03928316936371c54fc99361146a9381169290811691600160a01b90910463ffffffff1690600401612a2c565b602060405180830381865afa158015611487573d6000803e3d6000fd5b505050506040513d601f19601f820116820180604052508101906114ab9190612a55565b60058301546040516360d49d5360e01b81526001600160a01b038a811660048301526001600160801b038084166024840152600160801b90930490921660448201529192508291908216906360d49d539060640160408051808303816000875af115801561151d573d6000803e3d6000fd5b505050506040513d601f19601f820116820180604052508101906115419190612bb8565b600060058601556001600160801b03918216985016955061156189611e68565b50505050509250929050565b60606001805461053490612943565b600080808061158d85870187612beb565b6006546040516371c54fc960e01b815294985092965090945092506000916001600160a01b03909116906371c54fc9906115cf90889088908890600401612a2c565b602060405180830381865afa1580156115ec573d6000803e3d6000fd5b505050506040513d601f19601f820116820180604052508101906116109190612a55565b90506001600160a01b038116331461166a5760405162461bcd60e51b815260206004820152601760248201527f496e76616c69642063616c6c6261636b2063616c6c6572000000000000000000604482015260640161081c565b88156116eb576040516323b872dd60e01b81526001600160a01b038381166004830152306024830152604482018b90528616906323b872dd906064016020604051808303816000875af11580156116c5573d6000803e3d6000fd5b505050506040513d601f19601f820116820180604052508101906116e99190612c45565b505b871561176c576040516323b872dd60e01b81526001600160a01b038381166004830152306024830152604482018a90528516906323b872dd906064016020604051808303816000875af1158015611746573d6000803e3d6000fd5b505050506040513d601f19601f8201168201806040525081019061176a9190612c45565b505b505050505050505050565b6105eb338383611ea3565b61178d8484846107f6565b6108803385858585611f42565b60606117a58261183d565b5060006117bd60408051602081019091526000815290565b905060008151116117dd5760405180602001604052806000815250611808565b806117e78461206d565b6040516020016117f8929190612c62565b6040516020818303038152906040525b9392505050565b6001600160a01b03918216600090815260056020908152604080832093909416825291909152205460ff1690565b6000818152600260205260408120546001600160a01b03168061051f57604051637e27328960e01b81526004810184905260240161081c565b6110568383836001612100565b6000828152600260205260408120546001600160a01b03908116908316156118b0576118b0818486612206565b6001600160a01b038116156118ee576118cd600085600080612100565b6001600160a01b038116600090815260036020526040902080546000190190555b6001600160a01b0385161561191d576001600160a01b0385166000908152600360205260409020805460010190555b60008481526002602052604080822080546001600160a01b0319166001600160a01b0389811691821790925591518793918516917fddf252ad1be2c89b69c2b068fc378daa952ba7f163c4a11628f55a4df523b3ef91a4949350505050565b60020b600060ff82901d80830118620d89e88111156119a6576119a66345c3193d60e11b8461226a565b7001fffcb933bd6fad37aa2d162d1a5940016001821602600160801b1860028216156119e2576ffff97272373d413259a46990580e213a0260801c5b6004821615611a01576ffff2e50f5f656932ef12357cf3c7fdcc0260801c5b6008821615611a20576fffe5caca7e10e4e61c3624eaa0941cd00260801c5b6010821615611a3f576fffcb9843d60f6159c9db58835c9266440260801c5b6020821615611a5e576fff973b41fa98c081472e6896dfb254c00260801c5b6040821615611a7d576fff2ea16466c96a3843ec78b326b528610260801c5b6080821615611a9c576ffe5dee046a99a2a811c461f1969c30530260801c5b610100821615611abc576ffcbe86c7900a88aedcffc83b479aa3a40260801c5b610200821615611adc576ff987a7253ac413176f2b074cf7815e540260801c5b610400821615611afc576ff3392b0822b70005940c7a398e4b70f30260801c5b610800821615611b1c576fe7159475a2c29b7443b29c7fa6e889d90260801c5b611000821615611b3c576fd097f3bdfd2022b8845ad8f792aa58250260801c5b612000821615611b5c576fa9f746462d870fdf8a65dc1f90e061e50260801c5b614000821615611b7c576f70d869a156d2a1b890bb3df62baf32f70260801c5b618000821615611b9c576f31be135f97d08fd981231505542fcfa60260801c5b62010000821615611bbd576f09aa508b5b7a84e1c677de54f3e99bc90260801c5b62020000821615611bdd576e5d6af8dedb81196699c329225ee6040260801c5b62040000821615611bfc576d2216e584f5fa1ea926041bedfe980260801c5b62080000821615611c19576b048a170391f7dc42444e8fa20260801c5b6000841315611c2757600019045b63ffffffff0160201c9392505050565b6000836001600160a01b0316856001600160a01b03161115611c57579293925b846001600160a01b0316866001600160a01b031611611c8257611c7b85858561227b565b9050611cf2565b836001600160a01b0316866001600160a01b03161015611ce4576000611ca987868661227b565b90506000611cb88789866122e5565b9050806001600160801b0316826001600160801b031610611cd95780611cdb565b815b92505050611cf2565b611cef8585846122e5565b90505b95945050505050565b6001600160a01b038216611d2557604051633250574960e11b81526000600482015260240161081c565b6000611d3383836000611883565b90506001600160a01b03811615611056576040516339e3563760e11b81526000600482015260240161081c565b60006001600160a01b03831615801590611dbe5750826001600160a01b0316846001600160a01b03161480611d9a5750611d9a848461180f565b80611dbe57506000828152600460205260409020546001600160a01b038481169116145b949350505050565b60008383028160001985870982811083820303915050808411611de857600080fd5b80600003611dfb57508290049050611808565b6000848688096000868103871696879004966002600389028118808a02820302808a02820302808a02820302808a02820302808a02820302808a02909103029181900381900460010186841190950394909402919094039290920491909117919091029150509392505050565b6000611e776000836000611883565b90506001600160a01b0381166105eb57604051637e27328960e01b81526004810183905260240161081c565b6001600160a01b038216611ed557604051630b61174360e31b81526001600160a01b038316600482015260240161081c565b6001600160a01b03838116600081815260056020908152604080832094871680845294825291829020805460ff191686151590811790915591519182527f17307eab39ab6107e8899845ad3d59bd9653f200f220920489ca2b5937696c31910160405180910390a3505050565b6001600160a01b0383163b1561206657604051630a85bd0160e11b81526001600160a01b0384169063150b7a0290611f84908890889087908790600401612c91565b6020604051808303816000875af1925050508015611fbf575060408051601f3d908101601f19168201909252611fbc91810190612cc4565b60015b612028573d808015611fed576040519150601f19603f3d011682016040523d82523d6000602084013e611ff2565b606091505b50805160000361202057604051633250574960e11b81526001600160a01b038516600482015260240161081c565b805160208201fd5b6001600160e01b03198116630a85bd0160e11b1461206457604051633250574960e11b81526001600160a01b038516600482015260240161081c565b505b5050505050565b6060600061207a8361231b565b600101905060008167ffffffffffffffff81111561209a5761209a61281f565b6040519080825280601f01601f1916602001820160405280156120c4576020820181803683370190505b5090508181016020015b600019016f181899199a1a9b1b9c1cb0b131b232b360811b600a86061a8153600a85049450846120ce57509392505050565b808061211457506001600160a01b03821615155b156121d65760006121248461183d565b90506001600160a01b038316158015906121505750826001600160a01b0316816001600160a01b031614155b80156121635750612161818461180f565b155b1561218c5760405163a9fbf51f60e01b81526001600160a01b038416600482015260240161081c565b81156121d45783856001600160a01b0316826001600160a01b03167f8c5be1e5ebec7d5bd14f71427d1e84f3dd0314c0f7b2291e5b200ac8c7c3b92560405160405180910390a45b505b5050600090815260046020526040902080546001600160a01b0319166001600160a01b0392909216919091179055565b612211838383611d60565b611056576001600160a01b03831661223f57604051637e27328960e01b81526004810182905260240161081c565b60405163177e802f60e01b81526001600160a01b03831660048201526024810182905260440161081c565b816000528060020b60045260246000fd5b6000826001600160a01b0316846001600160a01b0316111561229b579192915b60006122be856001600160a01b0316856001600160a01b0316600160601b611dc6565b9050611cf26122e084836122d28989612ce1565b6001600160a01b0316611dc6565b6123f3565b6000826001600160a01b0316846001600160a01b03161115612305579192915b611dbe6122e083600160601b6122d28888612ce1565b60008072184f03e93ff9f4daa797ed6e38ed64bf6a1f0160401b831061235a5772184f03e93ff9f4daa797ed6e38ed64bf6a1f0160401b830492506040015b6d04ee2d6d415b85acef81000000008310612386576d04ee2d6d415b85acef8100000000830492506020015b662386f26fc1000083106123a457662386f26fc10000830492506010015b6305f5e10083106123bc576305f5e100830492506008015b61271083106123d057612710830492506004015b606483106123e2576064830492506002015b600a831061051f5760010192915050565b806001600160801b038116811461240957600080fd5b919050565b6001600160e01b03198116811461242457600080fd5b50565b60006020828403121561243957600080fd5b81356118088161240e565b60005b8381101561245f578181015183820152602001612447565b50506000910152565b60008151808452612480816020860160208601612444565b601f01601f19169290920160200192915050565b6020815260006118086020830184612468565b6000602082840312156124b957600080fd5b5035919050565b6001600160a01b038116811461242457600080fd5b600080604083850312156124e857600080fd5b82356124f3816124c0565b946020939093013593505050565b602080825282518282018190526000919060409081850190868401855b8281101561260757815180518552868101516001600160a01b0390811688870152868201518116878701526060808301519091169086015260808082015163ffffffff169086015260a08082015162ffffff169086015260c0808201516001600160801b03169086015260e080820151600281900b828801525050610100808201516125ae8288018260020b9052565b5050610120818101516001600160801b038116878301525050610140818101516001600160801b038116878301525050610160818101519086015261018090810151908501526101a0909301929085019060010161251e565b5091979650505050505050565b60008060006060848603121561262957600080fd5b8335612634816124c0565b92506020840135612644816124c0565b929592945050506040919091013590565b600060e0828403121561266757600080fd5b50919050565b60006020828403121561267f57600080fd5b8135611808816124c0565b6000806040838503121561269d57600080fd5b8235915060208301356126af816124c0565b809150509250929050565b8d81526001600160a01b038d811660208301528c811660408301528b16606082015263ffffffff8a16608082015262ffffff891660a08201526001600160801b03881660c08201526101a0810161271660e083018960020b9052565b61272661010083018860020b9052565b6001600160801b0386166101208301526001600160801b03851661014083015261016082019390935261018001529b9a5050505050505050505050565b6000806000806060858703121561277957600080fd5b8435935060208501359250604085013567ffffffffffffffff8082111561279f57600080fd5b818701915087601f8301126127b357600080fd5b8135818111156127c257600080fd5b8860208285010111156127d457600080fd5b95989497505060200194505050565b801515811461242457600080fd5b6000806040838503121561280457600080fd5b823561280f816124c0565b915060208301356126af816127e3565b634e487b7160e01b600052604160045260246000fd5b6000806000806080858703121561284b57600080fd5b8435612856816124c0565b93506020850135612866816124c0565b925060408501359150606085013567ffffffffffffffff8082111561288a57600080fd5b818701915087601f83011261289e57600080fd5b8135818111156128b0576128b061281f565b604051601f8201601f19908116603f011681019083821181831017156128d8576128d861281f565b816040528281528a60208487010111156128f157600080fd5b82602086016020830137600060208483010152809550505050505092959194509250565b6000806040838503121561292857600080fd5b8235612933816124c0565b915060208301356126af816124c0565b600181811c9082168061295757607f821691505b60208210810361266757634e487b7160e01b600052602260045260246000fd5b634e487b7160e01b600052601160045260246000fd5b8181038181111561051f5761051f612977565b63ffffffff8181168382160190808211156129bd576129bd612977565b5092915050565b634e487b7160e01b600052603260045260246000fd5b600063ffffffff8083168181036129f3576129f3612977565b6001019392505050565b803563ffffffff8116811461240957600080fd5b600060208284031215612a2357600080fd5b611808826129fd565b6001600160a01b03938416815291909216602082015263ffffffff909116604082015260600190565b600060208284031215612a6757600080fd5b8151611808816124c0565b600060208284031215612a8457600080fd5b81518060020b811461180857600080fd5b6001600160a01b03841681526001600160801b0383166020820152606060408201819052600090611cf290830184612468565b60008060408385031215612adb57600080fd5b505080516020909101519092909150565b600060018201612afe57612afe612977565b5060010190565b80516001600160801b038116811461240957600080fd5b600080600080600060a08688031215612b3457600080fd5b612b3d86612b05565b94506020860151935060408601519250612b5960608701612b05565b9150612b6760808701612b05565b90509295509295909350565b600060208284031215612b8557600080fd5b815162ffffff8116811461180857600080fd5b6001600160801b038181168382160190808211156129bd576129bd612977565b60008060408385031215612bcb57600080fd5b612bd483612b05565b9150612be260208401612b05565b90509250929050565b60008060008060808587031215612c0157600080fd5b8435612c0c816124c0565b93506020850135612c1c816124c0565b9250612c2a604086016129fd565b91506060850135612c3a816124c0565b939692955090935050565b600060208284031215612c5757600080fd5b8151611808816127e3565b60008351612c74818460208801612444565b835190830190612c88818360208801612444565b01949350505050565b6001600160a01b0385811682528416602082015260408101839052608060608201819052600090611cef90830184612468565b600060208284031215612cd657600080fd5b81516118088161240e565b6001600160a01b038281168282160390808211156129bd576129bd61297756fea264697066735822122003e4b9040ab081c9ec2b7847bc279f99c86cf8bd1570018a02a92dc0440b5ed064736f6c63430008140033",
  "devdoc": {
    "errors": {
      "ERC721IncorrectOwner(address,uint256,address)": [
        {
          "details": "Indicates an error related to the ownership over a particular token. Used in transfers.",
          "params": {
            "owner": "Address of the current owner of a token.",
            "sender": "Address whose tokens are being transferred.",
            "tokenId": "Identifier number of a token."
          }
        }
      ],
      "ERC721InsufficientApproval(address,uint256)": [
        {
          "details": "Indicates a failure with the `operator`s approval. Used in transfers.",
          "params": {
            "operator": "Address that may be allowed to operate on tokens without being their owner.",
            "tokenId": "Identifier number of a token."
          }
        }
      ],
      "ERC721InvalidApprover(address)": [
        {
          "details": "Indicates a failure with the `approver` of a token to be approved. Used in approvals.",
          "params": {
            "approver": "Address initiating an approval operation."
          }
        }
      ],
      "ERC721InvalidOperator(address)": [
        {
          "details": "Indicates a failure with the `operator` to be approved. Used in approvals.",
          "params": {
            "operator": "Address that may be allowed to operate on tokens without being their owner."
          }
        }
      ],
      "ERC721InvalidOwner(address)": [
        {
          "details": "Indicates that an address can't be an owner. For example, `address(0)` is a forbidden owner in ERC-20. Used in balance queries.",
          "params": {
            "owner": "Address of the current owner of a token."
          }
        }
      ],
      "ERC721InvalidReceiver(address)": [
        {
          "details": "Indicates a failure with the token `receiver`. Used in transfers.",
          "params": {
            "receiver": "Address to which tokens are being transferred."
          }
        }
      ],
      "ERC721InvalidSender(address)": [
        {
          "details": "Indicates a failure with the token `sender`. Used in transfers.",
          "params": {
            "sender": "Address whose tokens are being transferred."
          }
        }
      ],
      "ERC721NonexistentToken(uint256)": [
        {
          "details": "Indicates a `tokenId` whose `owner` is the zero address.",
          "params": {
            "tokenId": "Identifier number of a token."
          }
        }
      ]
    },
    "events": {
      "Approval(address,address,uint256)": {
        "details": "Emitted when `owner` enables `approved` to manage the `tokenId` token."
      },
      "ApprovalForAll(address,address,bool)": {
        "details": "Emitted when `owner` enables or disables (`approved`) `operator` to manage all of its assets."
      },
      "Transfer(address,address,uint256)": {
        "details": "Emitted when `tokenId` token is transferred from `from` to `to`."
      }
    },
    "kind": "dev",
    "methods": {
      "approve(address,uint256)": {
        "details": "Gives permission to `to` to transfer `tokenId` token to another account. The approval is cleared when the token is transferred. Only a single account can be approved at a time, so approving the zero address clears previous approvals. Requirements: - The caller must own the token or be an approved operator. - `tokenId` must exist. Emits an {Approval} event."
      },
      "balanceOf(address)": {
        "details": "Returns the number of tokens in ``owner``'s account."
      },
      "getApproved(uint256)": {
        "details": "Returns the account approved for `tokenId` token. Requirements: - `tokenId` must exist."
      },
      "isApprovedForAll(address,address)": {
        "details": "Returns if the `operator` is allowed to manage all of the assets of `owner`. See {setApprovalForAll}"
      },
      "name()": {
        "details": "Returns the token collection name."
      },
      "ownerOf(uint256)": {
        "details": "Returns the owner of the `tokenId` token. Requirements: - `tokenId` must exist."
      },
      "safeTransferFrom(address,address,uint256)": {
        "details": "Safely transfers `tokenId` token from `from` to `to`, checking first that contract recipients are aware of the ERC-721 protocol to prevent tokens from being forever locked. Requirements: - `from` cannot be the zero address. - `to` cannot be the zero address. - `tokenId` token must exist and be owned by `from`. - If the caller is not `from`, it must have been allowed to move this token by either {approve} or   {setApprovalForAll}. - If `to` refers to a smart contract, it must implement {IERC721Receiver-onERC721Received}, which is called upon   a safe transfer. Emits a {Transfer} event."
      },
      "safeTransferFrom(address,address,uint256,bytes)": {
        "details": "Safely transfers `tokenId` token from `from` to `to`. Requirements: - `from` cannot be the zero address. - `to` cannot be the zero address. - `tokenId` token must exist and be owned by `from`. - If the caller is not `from`, it must be approved to move this token by either {approve} or {setApprovalForAll}. - If `to` refers to a smart contract, it must implement {IERC721Receiver-onERC721Received}, which is called upon   a safe transfer. Emits a {Transfer} event."
      },
      "setApprovalForAll(address,bool)": {
        "details": "Approve or remove `operator` as an operator for the caller. Operators can call {transferFrom} or {safeTransferFrom} for any token owned by the caller. Requirements: - The `operator` cannot be the address zero. Emits an {ApprovalForAll} event."
      },
      "supportsInterface(bytes4)": {
        "details": "Returns true if this contract implements the interface defined by `interfaceId`. See the corresponding https://eips.ethereum.org/EIPS/eip-165#how-interfaces-are-identified[ERC section] to learn more about how these ids are created. This function call must use less than 30 000 gas."
      },
      "symbol()": {
        "details": "Returns the token collection symbol."
      },
      "tokenURI(uint256)": {
        "details": "Returns the Uniform Resource Identifier (URI) for `tokenId` token."
      },
      "transferFrom(address,address,uint256)": {
        "details": "Transfers `tokenId` token from `from` to `to`. WARNING: Note that the caller is responsible to confirm that the recipient is capable of receiving ERC-721 or else they may be permanently lost. Usage of {safeTransferFrom} prevents loss, though the caller must understand this adds an external call which potentially creates a reentrancy vulnerability. Requirements: - `from` cannot be the zero address. - `to` cannot be the zero address. - `tokenId` token must be owned by `from`. - If the caller is not `from`, it must be approved to move this token by either {approve} or {setApprovalForAll}. Emits a {Transfer} event."
      }
    },
    "stateVariables": {
      "_nextId": {
        "details": "The ID of the next token that will be minted. Skips 0"
      }
    },
    "version": 1
  },
  "userdoc": {
    "kind": "user",
    "methods": {},
    "version": 1
  },
  "storageLayout": {
    "storage": [
      {
        "astId": 395,
        "contract": "contracts/PositionManager.sol:PositionManager",
        "label": "_name",
        "offset": 0,
        "slot": "0",
        "type": "t_string_storage"
      },
      {
        "astId": 397,
        "contract": "contracts/PositionManager.sol:PositionManager",
        "label": "_symbol",
        "offset": 0,
        "slot": "1",
        "type": "t_string_storage"
      },
      {
        "astId": 401,
        "contract": "contracts/PositionManager.sol:PositionManager",
        "label": "_owners",
        "offset": 0,
        "slot": "2",
        "type": "t_mapping(t_uint256,t_address)"
      },
      {
        "astId": 405,
        "contract": "contracts/PositionManager.sol:PositionManager",
        "label": "_balances",
        "offset": 0,
        "slot": "3",
        "type": "t_mapping(t_address,t_uint256)"
      },
      {
        "astId": 409,
        "contract": "contracts/PositionManager.sol:PositionManager",
        "label": "_tokenApprovals",
        "offset": 0,
        "slot": "4",
        "type": "t_mapping(t_uint256,t_address)"
      },
      {
        "astId": 415,
        "contract": "contracts/PositionManager.sol:PositionManager",
        "label": "_operatorApprovals",
        "offset": 0,
        "slot": "5",
        "type": "t_mapping(t_address,t_mapping(t_address,t_bool))"
      },
      {
        "astId": 8303,
        "contract": "contracts/PositionManager.sol:PositionManager",
        "label": "poolManager",
        "offset": 0,
        "slot": "6",
        "type": "t_contract(IPoolManager)9861"
      },
      {
        "astId": 8307,
        "contract": "contracts/PositionManager.sol:PositionManager",
        "label": "_nextId",
        "offset": 0,
        "slot": "7",
        "type": "t_uint256"
      },
      {
        "astId": 8328,
        "contract": "contracts/PositionManager.sol:PositionManager",
        "label": "positions",
        "offset": 0,
        "slot": "8",
        "type": "t_mapping(t_uint256,t_struct(PositionInfo)9897_storage)"
      }
    ],
    "types": {
      "t_address": {
        "encoding": "inplace",
        "label": "address",
        "numberOfBytes": "20"
      },
      "t_bool": {
        "encoding": "inplace",
        "label": "bool",
        "numberOfBytes": "1"
      },
      "t_contract(IPoolManager)9861": {
        "encoding": "inplace",
        "label": "contract IPoolManager",
        "numberOfBytes": "20"
      },
      "t_int24": {
        "encoding": "inplace",
        "label": "int24",
        "numberOfBytes": "3"
      },
      "t_mapping(t_address,t_bool)": {
        "encoding": "mapping",
        "key": "t_address",
        "label": "mapping(address => bool)",
        "numberOfBytes": "32",
        "value": "t_bool"
      },
      "t_mapping(t_address,t_mapping(t_address,t_bool))": {
        "encoding": "mapping",
        "key": "t_address",
        "label": "mapping(address => mapping(address => bool))",
        "numberOfBytes": "32",
        "value": "t_mapping(t_address,t_bool)"
      },
      "t_mapping(t_address,t_uint256)": {
        "encoding": "mapping",
        "key": "t_address",
        "label": "mapping(address => uint256)",
        "numberOfBytes": "32",
        "value": "t_uint256"
      },
      "t_mapping(t_uint256,t_address)": {
        "encoding": "mapping",
        "key": "t_uint256",
        "label": "mapping(uint256 => address)",
        "numberOfBytes": "32",
        "value": "t_address"
      },
      "t_mapping(t_uint256,t_struct(PositionInfo)9897_storage)": {
        "encoding": "mapping",
        "key": "t_uint256",
        "label": "mapping(uint256 => struct IPositionManager.PositionInfo)",
        "numberOfBytes": "32",
        "value": "t_struct(PositionInfo)9897_storage"
      },
      "t_string_storage": {
        "encoding": "bytes",
        "label": "string",
        "numberOfBytes": "32"
      },
      "t_struct(PositionInfo)9897_storage": {
        "encoding": "inplace",
        "label": "struct IPositionManager.PositionInfo",
        "members": [
          {
            "astId": 9872,
            "contract": "contracts/PositionManager.sol:PositionManager",
            "label": "id",
            "offset": 0,
            "slot": "0",
            "type": "t_uint256"
          },
          {
            "astId": 9874,
            "contract": "contracts/PositionManager.sol:PositionManager",
            "label": "owner",
            "offset": 0,
            "slot": "1",
            "type": "t_address"
          },
          {
            "astId": 9876,
            "contract": "contracts/PositionManager.sol:PositionManager",
            "label": "token0",
            "offset": 0,
            "slot": "2",
            "type": "t_address"
          },
          {
            "astId": 9878,
            "contract": "contracts/PositionManager.sol:PositionManager",
            "label": "token1",
            "offset": 0,
            "slot": "3",
            "type": "t_address"
          },
          {
            "astId": 9880,
            "contract": "contracts/PositionManager.sol:PositionManager",
            "label": "index",
            "offset": 20,
            "slot": "3",
            "type": "t_uint32"
          },
          {
            "astId": 9882,
            "contract": "contracts/PositionManager.sol:PositionManager",
            "label": "fee",
            "offset": 24,
            "slot": "3",
            "type": "t_uint24"
          },
          {
            "astId": 9884,
            "contract": "contracts/PositionManager.sol:PositionManager",
            "label": "liquidity",
            "offset": 0,
            "slot": "4",
            "type": "t_uint128"
          },
          {
            "astId": 9886,
            "contract": "contracts/PositionManager.sol:PositionManager",
            "label": "tickLower",
            "offset": 16,
            "slot": "4",
            "type": "t_int24"
          },
          {
            "astId": 9888,
            "contract": "contracts/PositionManager.sol:PositionManager",
            "label": "tickUpper",
            "offset": 19,
            "slot": "4",
            "type": "t_int24"
          },
          {
            "astId": 9890,
            "contract": "contracts/PositionManager.sol:PositionManager",
            "label": "tokensOwed0",
            "offset": 0,
            "slot": "5",
            "type": "t_uint128"
          },
          {
            "astId": 9892,
            "contract": "contracts/PositionManager.sol:PositionManager",
            "label": "tokensOwed1",
            "offset": 16,
            "slot": "5",
            "type": "t_uint128"
          },
          {
            "astId": 9894,
            "contract": "contracts/PositionManager.sol:PositionManager",
            "label": "feeGrowthInside0LastX128",
            "offset": 0,
            "slot": "6",
            "type": "t_uint256"
          },
          {
            "astId": 9896,
            "contract": "contracts/PositionManager.sol:PositionManager",
            "label": "feeGrowthInside1LastX128",
            "offset": 0,
            "slot": "7",
            "type": "t_uint256"
          }
        ],
        "numberOfBytes": "256"
      },
      "t_uint128": {
        "encoding": "inplace",
        "label": "uint128",
        "numberOfBytes": "16"
      },
      "t_uint24": {
        "encoding": "inplace",
        "label": "uint24",
        "numberOfBytes": "3"
      },
      "t_uint256": {
        "encoding": "inplace",
        "label": "uint256",
        "numberOfBytes": "32"
      },
      "t_uint32": {
        "encoding": "inplace",
        "label": "uint32",
        "numberOfBytes": "4"
      }
    }
  }
}