{
  "address": "0x5a960fA99c25EB2bbe17f6E12A77Dc4f5f32991a",
  "abi": [
    {
      "inputs": [
        {
          "internalType": "address",
          "name": "_poolManager",
          "type": "address"
        }
      ],
      "stateMutability": "nonpayable",
      "type": "constructor"
    },
    {
      "anonymous": false,
      "inputs": [
        {
          "indexed": true,
          "internalType": "address",
          "name": "sender",
          "type": "address"
        },
        {
          "indexed": false,
          "internalType": "bool",
          "name": "zeroForOne",
          "type": "bool"
        },
        {
          "indexed": false,
          "internalType": "uint256",
          "name": "amountIn",
          "type": "uint256"
        },
        {
          "indexed": false,
          "internalType": "uint256",
          "name": "amountInRemaining",
          "type": "uint256"
        },
        {
          "indexed": false,
          "internalType": "uint256",
          "name": "amountOut",
          "type": "uint256"
        }
      ],
      "name": "Swap",
      "type": "event"
    },
    {
      "inputs": [
        {
          "components": [
            {
              "internalType": "address",
              "name": "tokenIn",
              "type": "address"
            },
            {
              "internalType": "address",
              "name": "tokenOut",
              "type": "address"
            },
            {
              "internalType": "uint32[]",
              "name": "indexPath",
              "type": "uint32[]"
            },
            {
              "internalType": "address",
              "name": "recipient",
              "type": "address"
            },
            {
              "internalType": "uint256",
              "name": "deadline",
              "type": "uint256"
            },
            {
              "internalType": "uint256",
              "name": "amountIn",
              "type": "uint256"
            },
            {
              "internalType": "uint256",
              "name": "amountOutMinimum",
              "type": "uint256"
            },
            {
              "internalType": "uint160",
              "name": "sqrtPriceLimitX96",
              "type": "uint160"
            }
          ],
          "internalType": "struct ISwapRouter.ExactInputParams",
          "name": "params",
          "type": "tuple"
        }
      ],
      "name": "exactInput",
      "outputs": [
        {
          "internalType": "uint256",
          "name": "amountOut",
          "type": "uint256"
        }
      ],
      "stateMutability": "payable",
      "type": "function"
    },
    {
      "inputs": [
        {
          "components": [
            {
              "internalType": "address",
              "name": "tokenIn",
              "type": "address"
            },
            {
              "internalType": "address",
              "name": "tokenOut",
              "type": "address"
            },
            {
              "internalType": "uint32[]",
              "name": "indexPath",
              "type": "uint32[]"
            },
            {
              "internalType": "address",
              "name": "recipient",
              "type": "address"
            },
            {
              "internalType": "uint256",
              "name": "deadline",
              "type": "uint256"
            },
            {
              "internalType": "uint256",
              "name": "amountOut",
              "type": "uint256"
            },
            {
              "internalType": "uint256",
              "name": "amountInMaximum",
              "type": "uint256"
            },
            {
              "internalType": "uint160",
              "name": "sqrtPriceLimitX96",
              "type": "uint160"
            }
          ],
          "internalType": "struct ISwapRouter.ExactOutputParams",
          "name": "params",
          "type": "tuple"
        }
      ],
      "name": "exactOutput",
      "outputs": [
        {
          "internalType": "uint256",
          "name": "amountIn",
          "type": "uint256"
        }
      ],
      "stateMutability": "payable",
      "type": "function"
    },
    {
      "inputs": [],
      "name": "poolManager",
      "outputs": [
        {
          "internalType": "contract IPoolManager",
          "name": "",
          "type": "address"
        }
      ],
      "stateMutability": "view",
      "type": "function"
    },
    {
      "inputs": [
        {
          "components": [
            {
              "internalType": "address",
              "name": "tokenIn",
              "type": "address"
            },
            {
              "internalType": "address",
              "name": "tokenOut",
              "type": "address"
            },
            {
              "internalType": "uint32[]",
              "name": "indexPath",
              "type": "uint32[]"
            },
            {
              "internalType": "uint256",
              "name": "amountIn",
              "type": "uint256"
            },
            {
              "internalType": "uint160",
              "name": "sqrtPriceLimitX96",
              "type": "uint160"
            }
          ],
          "internalType": "struct ISwapRouter.QuoteExactInputParams",
          "name": "params",
          "type": "tuple"
        }
      ],
      "name": "quoteExactInput",
      "outputs": [
        {
          "internalType": "uint256",
          "name": "amountOut",
          "type": "uint256"
        }
      ],
      "stateMutability": "nonpayable",
      "type": "function"
    },
    {
      "inputs": [
        {
          "components": [
            {
              "internalType": "address",
              "name": "tokenIn",
              "type": "address"
            },
            {
              "internalType": "address",
              "name": "tokenOut",
              "type": "address"
            },
            {
              "internalType": "uint32[]",
              "name": "indexPath",
              "type": "uint32[]"
            },
            {
              "internalType": "uint256",
              "name": "amountOut",
              "type": "uint256"
            },
            {
              "internalType": "uint160",
              "name": "sqrtPriceLimitX96",
              "type": "uint160"
            }
          ],
          "internalType": "struct ISwapRouter.QuoteExactOutputParams",
          "name": "params",
          "type": "tuple"
        }
      ],
      "name": "quoteExactOutput",
      "outputs": [
        {
          "internalType": "uint256",
          "name": "amountIn",
          "type": "uint256"
        }
      ],
      "stateMutability": "nonpayable",
      "type": "function"
    },
    {
      "inputs": [
        {
          "internalType": "int256",
          "name": "amount0Delta",
          "type": "int256"
        },
        {
          "internalType": "int256",
          "name": "amount1Delta",
          "type": "int256"
        },
        {
          "internalType": "bytes",
          "name": "data",
          "type": "bytes"
        }
      ],
      "name": "swapCallback",
      "outputs": [],
      "stateMutability": "nonpayable",
      "type": "function"
    },
    {
      "inputs": [
        {
          "internalType": "contract IPool",
          "name": "pool",
          "type": "address"
        },
        {
          "internalType": "address",
          "name": "recipient",
          "type": "address"
        },
        {
          "internalType": "bool",
          "name": "zeroForOne",
          "type": "bool"
        },
        {
          "internalType": "int256",
          "name": "amountSpecified",
          "type": "int256"
        },
        {
          "internalType": "uint160",
          "name": "sqrtPriceLimitX96",
          "type": "uint160"
        },
        {
          "internalType": "bytes",
          "name": "data",
          "type": "bytes"
        }
      ],
      "name": "swapInPool",
      "outputs": [
        {
          "internalType": "int256",
          "name": "amount0",
          "type": "int256"
        },
        {
          "internalType": "int256",
          "name": "amount1",
          "type": "int256"
        }
      ],
      "stateMutability": "nonpayable",
      "type": "function"
    }
  ],
  "transactionHash": "0x09e131729367e87c6736d784f658c88f4428f3ef25c5b7607cc92bf38dca42f0",
  "args": [
    "0xb1952789eE2d5e3f909aaAa5456ABFabAB316419"
  ],
  "numDeployments": 2,
  "solcInputHash": "2c01495a0b159ef3f3076037eca6f249",
  "bytecode": "0x608060405234801561001057600080fd5b5060405161156838038061156883398101604081905261002f91610054565b600080546001600160a01b0319166001600160a01b0392909216919091179055610084565b60006020828403121561006657600080fd5b81516001600160a01b038116811461007d57600080fd5b9392505050565b6114d5806100936000396000f3fe6080604052600436106100705760003560e01c8063a8a590fd1161004e578063a8a590fd146100f0578063ae5ab5e114610103578063dc4c90d314610123578063fa483e721461015b57600080fd5b80633439aade14610075578063393dd1da146100a85780636c207ad0146100dd575b600080fd5b34801561008157600080fd5b50610095610090366004610def565b61017d565b6040519081526020015b60405180910390f35b3480156100b457600080fd5b506100c86100c3366004610e9b565b6102bb565b6040805192835260208301919091520161009f565b6100956100eb366004610f46565b610387565b6100956100fe366004610f46565b61074a565b34801561010f57600080fd5b5061009561011e366004610def565b610aba565b34801561012f57600080fd5b50600054610143906001600160a01b031681565b6040516001600160a01b03909116815260200161009f565b34801561016757600080fd5b5061017b610176366004610f7b565b610b88565b005b6040805161010081019091526000903090636c207ad090806101a26020870187610fce565b6001600160a01b031681526020018560200160208101906101c39190610fce565b6001600160a01b031681526020016101de6040870187610ff2565b808060200260200160405190810160405280939291908181526020018383602002808284376000920182905250938552505050602082015260400161022542610e10611052565b81526060808701356020830152600060408301520161024a60a0870160808801610fce565b6001600160a01b03168152506040518263ffffffff1660e01b8152600401610272919061112e565b6020604051808303816000875af1158015610291573d6000803e3d6000fd5b505050506040513d601f19601f820116820180604052508101906102b59190611141565b92915050565b600080886001600160a01b031663128acb088989898989896040518763ffffffff1660e01b81526004016102f49695949392919061115a565b60408051808303816000875af192505050801561032e575060408051601f3d908101601f1916820190925261032b918101906111b7565b60015b610375573d80801561035c576040519150601f19603f3d011682016040523d82523d6000602084013e610361565b606091505b5061036b81610d36565b925092505061037b565b90925090505b97509795505050505050565b600060a08201358161039f6040850160208601610fce565b6001600160a01b03166103b56020860186610fce565b6001600160a01b031610905060005b6103d16040860186610ff2565b90508110156106ab57600080546001600160a01b03166371c54fc96103f96020890189610fce565b61040960408a0160208b01610fce565b61041660408b018b610ff2565b87818110610426576104266111db565b905060200201602081019061043b919061120a565b6040518463ffffffff1660e01b815260040161045993929190611225565b602060405180830381865afa158015610476573d6000803e3d6000fd5b505050506040513d601f19601f8201168201806040525081019061049a919061124e565b90506001600160a01b0381166104e85760405162461bcd60e51b815260206004820152600e60248201526d141bdbdb081b9bdd08199bdd5b9960921b60448201526064015b60405180910390fd5b8060006104f86020890189610fce565b61050860408a0160208b01610fce565b61051560408b018b610ff2565b87818110610525576105256111db565b905060200201602081019061053a919061120a565b600061054c60808d0160608e01610fce565b6001600160a01b0316146105605733610563565b60005b604080516001600160a01b0395861660208201529385169084015263ffffffff909116606083015291909116608082015260a00160408051601f1981840301815291905290506000803063393dd1da856105c360808e0160608f01610fce565b8a8c8f60e00160208101906105d89190610fce565b896040518763ffffffff1660e01b81526004016105fa969594939291906112bb565b60408051808303816000875af1158015610618573d6000803e3d6000fd5b505050506040513d601f19601f8201168201806040525081019061063c91906111b7565b915091508661064b578061064d565b815b610657908961130a565b97508661066c576106678261131d565b610675565b6106758161131d565b61067f908a611052565b9850876000036106935750505050506106ab565b505050505080806106a390611339565b9150506103c4565b508360c001358310156106f45760405162461bcd60e51b815260206004820152601160248201527014db1a5c1c1859d948195e18d959591959607a1b60448201526064016104df565b60408051821515815260a086013560208201529081018390526060810184905233907f176648f1f11cda284c124490086be42a926ddf0ae887ebe7b1d6b337d89427569060800160405180910390a25050919050565b600060a0820135816107626040850160208601610fce565b6001600160a01b03166107786020860186610fce565b6001600160a01b031610905060005b6107946040860186610ff2565b9050811015610a7157600080546001600160a01b03166371c54fc96107bc6020890189610fce565b6107cc60408a0160208b01610fce565b6107d960408b018b610ff2565b878181106107e9576107e96111db565b90506020020160208101906107fe919061120a565b6040518463ffffffff1660e01b815260040161081c93929190611225565b602060405180830381865afa158015610839573d6000803e3d6000fd5b505050506040513d601f19601f8201168201806040525081019061085d919061124e565b90506001600160a01b0381166108a65760405162461bcd60e51b815260206004820152600e60248201526d141bdbdb081b9bdd08199bdd5b9960921b60448201526064016104df565b8060006108b66020890189610fce565b6108c660408a0160208b01610fce565b6108d360408b018b610ff2565b878181106108e3576108e36111db565b90506020020160208101906108f8919061120a565b600061090a60808d0160608e01610fce565b6001600160a01b03161461091e5733610921565b60005b604080516001600160a01b0395861660208201529385169084015263ffffffff909116606083015291909116608082015260a00160408051601f1981840301815291905290506000803063393dd1da8561098160808e0160608f01610fce565b8a61098b8d61131d565b8f60e001602081019061099e9190610fce565b896040518763ffffffff1660e01b81526004016109c0969594939291906112bb565b60408051808303816000875af11580156109de573d6000803e3d6000fd5b505050506040513d601f19601f82011682018060405250810190610a0291906111b7565b9150915086610a1957610a148261131d565b610a22565b610a228161131d565b610a2c908961130a565b975086610a395780610a3b565b815b610a45908a611052565b985087600003610a59575050505050610a71565b50505050508080610a6990611339565b915050610787565b508360c001358311156106f45760405162461bcd60e51b815260206004820152601160248201527014db1a5c1c1859d948195e18d959591959607a1b60448201526064016104df565b604080516101008101909152600090309063a8a590fd9080610adf6020870187610fce565b6001600160a01b03168152602001856020016020810190610b009190610fce565b6001600160a01b03168152602001610b1b6040870187610ff2565b8080602002602001604051908101604052809392919081815260200183836020028082843760009201829052509385525050506020820152604001610b6242610e10611052565b8152606080870135602083015260001960408301520161024a60a0870160808801610fce565b6000808080610b9985870187611352565b600080546040516371c54fc960e01b81529599509397509195509350916001600160a01b03909116906371c54fc990610bda90889088908890600401611225565b602060405180830381865afa158015610bf7573d6000803e3d6000fd5b505050506040513d601f19601f82011682018060405250810190610c1b919061124e565b90506001600160a01b0381163314610c755760405162461bcd60e51b815260206004820152601760248201527f496e76616c69642063616c6c6261636b2063616c6c657200000000000000000060448201526064016104df565b6000808a13610c845788610c86565b895b90506001600160a01b038316610ca7576040518a8152896020820152604081fd5b8015610d2a576040516323b872dd60e01b81526001600160a01b0384811660048301528381166024830152604482018390528716906323b872dd906064016020604051808303816000875af1158015610d04573d6000803e3d6000fd5b505050506040513d601f19601f82011682018060405250810190610d2891906113ac565b505b50505050505050505050565b6000808251604014610dba57604483511015610d875760405162461bcd60e51b815260206004820152601060248201526f2ab732bc3832b1ba32b21032b93937b960811b60448201526064016104df565b60048301925082806020019051810190610da191906113df565b60405162461bcd60e51b81526004016104df919061148c565b82806020019051810190610dce91906111b7565b91509150915091565b600060a08284031215610de957600080fd5b50919050565b600060208284031215610e0157600080fd5b813567ffffffffffffffff811115610e1857600080fd5b610e2484828501610dd7565b949350505050565b6001600160a01b0381168114610e4157600080fd5b50565b8015158114610e4157600080fd5b60008083601f840112610e6457600080fd5b50813567ffffffffffffffff811115610e7c57600080fd5b602083019150836020828501011115610e9457600080fd5b9250929050565b600080600080600080600060c0888a031215610eb657600080fd5b8735610ec181610e2c565b96506020880135610ed181610e2c565b95506040880135610ee181610e44565b9450606088013593506080880135610ef881610e2c565b925060a088013567ffffffffffffffff811115610f1457600080fd5b610f208a828b01610e52565b989b979a50959850939692959293505050565b60006101008284031215610de957600080fd5b600060208284031215610f5857600080fd5b813567ffffffffffffffff811115610f6f57600080fd5b610e2484828501610f33565b60008060008060608587031215610f9157600080fd5b8435935060208501359250604085013567ffffffffffffffff811115610fb657600080fd5b610fc287828801610e52565b95989497509550505050565b600060208284031215610fe057600080fd5b8135610feb81610e2c565b9392505050565b6000808335601e1984360301811261100957600080fd5b83018035915067ffffffffffffffff82111561102457600080fd5b6020019150600581901b3603821315610e9457600080fd5b634e487b7160e01b600052601160045260246000fd5b808201808211156102b5576102b561103c565b80516001600160a01b039081168352602080830151909116818401526040808301516101009185018290528051918501829052600092610120860192918101918491905b808310156110cf57835163ffffffff1685529381019392810192600192909201916110a9565b5050505060608301516110ed60608601826001600160a01b03169052565b506080830151608085015260a083015160a085015260c083015160c085015260e083015161112660e08601826001600160a01b03169052565b509392505050565b602081526000610feb6020830184611065565b60006020828403121561115357600080fd5b5051919050565b6001600160a01b0387811682528615156020830152604082018690528416606082015260a06080820181905281018290526000828460c0840137600060c0848401015260c0601f19601f8501168301019050979650505050505050565b600080604083850312156111ca57600080fd5b505080516020909101519092909150565b634e487b7160e01b600052603260045260246000fd5b803563ffffffff8116811461120557600080fd5b919050565b60006020828403121561121c57600080fd5b610feb826111f1565b6001600160a01b03938416815291909216602082015263ffffffff909116604082015260600190565b60006020828403121561126057600080fd5b8151610feb81610e2c565b60005b8381101561128657818101518382015260200161126e565b50506000910152565b600081518084526112a781602086016020860161126b565b601f01601f19169290920160200192915050565b6001600160a01b03878116825286811660208301528515156040830152606082018590528316608082015260c060a082018190526000906112fe9083018461128f565b98975050505050505050565b818103818111156102b5576102b561103c565b6000600160ff1b82016113325761133261103c565b5060000390565b60006001820161134b5761134b61103c565b5060010190565b6000806000806080858703121561136857600080fd5b843561137381610e2c565b9350602085013561138381610e2c565b9250611391604086016111f1565b915060608501356113a181610e2c565b939692955090935050565b6000602082840312156113be57600080fd5b8151610feb81610e44565b634e487b7160e01b600052604160045260246000fd5b6000602082840312156113f157600080fd5b815167ffffffffffffffff8082111561140957600080fd5b818401915084601f83011261141d57600080fd5b81518181111561142f5761142f6113c9565b604051601f8201601f19908116603f01168101908382118183101715611457576114576113c9565b8160405282815287602084870101111561147057600080fd5b61148183602083016020880161126b565b979650505050505050565b602081526000610feb602083018461128f56fea2646970667358221220e4a79f5cfaaa5cc716f81cc0af7e022acf98361efc6e7ea8edcee15a1bef2a9064736f6c63430008140033",
  "devdoc": {
    "kind": "dev",
    "methods": {
      "quoteExactInput((address,address,uint32[],uint256,uint160))": {
        "details": ""
      }
    },
    "version": 1
  },
  "userdoc": {
    "kind": "user",
    "methods": {},
    "version": 1
  },
  "storageLayout": {
    "storage": [
      {
        "astId": 9423,
        "contract": "contracts/SwapRouter.sol:SwapRouter",
        "label": "poolManager",
        "offset": 0,
        "slot": "0",
        "type": "t_contract(IPoolManager)10365"
      }
    ],
    "types": {
      "t_contract(IPoolManager)10365": {
        "encoding": "inplace",
        "label": "contract IPoolManager",
        "numberOfBytes": "20"
      }
    }
  }
}