{
  "address": "0x2569A01205366e09271056D63Cb18EcB6D78cCeC",
  "abi": [
    {
      "inputs": [
        {
          "internalType": "address",
          "name": "_poolManager",
          "type": "address"
        }
      ],
      "stateMutability": "nonpayable",
      "type": "constructor"
    },
    {
      "anonymous": false,
      "inputs": [
        {
          "indexed": true,
          "internalType": "address",
          "name": "sender",
          "type": "address"
        },
        {
          "indexed": false,
          "internalType": "bool",
          "name": "zeroForOne",
          "type": "bool"
        },
        {
          "indexed": false,
          "internalType": "uint256",
          "name": "amountIn",
          "type": "uint256"
        },
        {
          "indexed": false,
          "internalType": "uint256",
          "name": "amountInRemaining",
          "type": "uint256"
        },
        {
          "indexed": false,
          "internalType": "uint256",
          "name": "amountOut",
          "type": "uint256"
        }
      ],
      "name": "Swap",
      "type": "event"
    },
    {
      "inputs": [
        {
          "components": [
            {
              "internalType": "address",
              "name": "tokenIn",
              "type": "address"
            },
            {
              "internalType": "address",
              "name": "tokenOut",
              "type": "address"
            },
            {
              "internalType": "uint32[]",
              "name": "indexPath",
              "type": "uint32[]"
            },
            {
              "internalType": "address",
              "name": "recipient",
              "type": "address"
            },
            {
              "internalType": "uint256",
              "name": "deadline",
              "type": "uint256"
            },
            {
              "internalType": "uint256",
              "name": "amountIn",
              "type": "uint256"
            },
            {
              "internalType": "uint256",
              "name": "amountOutMinimum",
              "type": "uint256"
            },
            {
              "internalType": "uint160",
              "name": "sqrtPriceLimitX96",
              "type": "uint160"
            }
          ],
          "internalType": "struct ISwapRouter.ExactInputParams",
          "name": "params",
          "type": "tuple"
        }
      ],
      "name": "exactInput",
      "outputs": [
        {
          "internalType": "uint256",
          "name": "amountOut",
          "type": "uint256"
        }
      ],
      "stateMutability": "payable",
      "type": "function"
    },
    {
      "inputs": [
        {
          "components": [
            {
              "internalType": "address",
              "name": "tokenIn",
              "type": "address"
            },
            {
              "internalType": "address",
              "name": "tokenOut",
              "type": "address"
            },
            {
              "internalType": "uint32[]",
              "name": "indexPath",
              "type": "uint32[]"
            },
            {
              "internalType": "address",
              "name": "recipient",
              "type": "address"
            },
            {
              "internalType": "uint256",
              "name": "deadline",
              "type": "uint256"
            },
            {
              "internalType": "uint256",
              "name": "amountOut",
              "type": "uint256"
            },
            {
              "internalType": "uint256",
              "name": "amountInMaximum",
              "type": "uint256"
            },
            {
              "internalType": "uint160",
              "name": "sqrtPriceLimitX96",
              "type": "uint160"
            }
          ],
          "internalType": "struct ISwapRouter.ExactOutputParams",
          "name": "params",
          "type": "tuple"
        }
      ],
      "name": "exactOutput",
      "outputs": [
        {
          "internalType": "uint256",
          "name": "amountIn",
          "type": "uint256"
        }
      ],
      "stateMutability": "payable",
      "type": "function"
    },
    {
      "inputs": [],
      "name": "poolManager",
      "outputs": [
        {
          "internalType": "contract IPoolManager",
          "name": "",
          "type": "address"
        }
      ],
      "stateMutability": "view",
      "type": "function"
    },
    {
      "inputs": [
        {
          "components": [
            {
              "internalType": "address",
              "name": "tokenIn",
              "type": "address"
            },
            {
              "internalType": "address",
              "name": "tokenOut",
              "type": "address"
            },
            {
              "internalType": "uint32[]",
              "name": "indexPath",
              "type": "uint32[]"
            },
            {
              "internalType": "uint256",
              "name": "amountIn",
              "type": "uint256"
            },
            {
              "internalType": "uint160",
              "name": "sqrtPriceLimitX96",
              "type": "uint160"
            }
          ],
          "internalType": "struct ISwapRouter.QuoteExactInputParams",
          "name": "params",
          "type": "tuple"
        }
      ],
      "name": "quoteExactInput",
      "outputs": [
        {
          "internalType": "uint256",
          "name": "amountOut",
          "type": "uint256"
        }
      ],
      "stateMutability": "nonpayable",
      "type": "function"
    },
    {
      "inputs": [
        {
          "components": [
            {
              "internalType": "address",
              "name": "tokenIn",
              "type": "address"
            },
            {
              "internalType": "address",
              "name": "tokenOut",
              "type": "address"
            },
            {
              "internalType": "uint32[]",
              "name": "indexPath",
              "type": "uint32[]"
            },
            {
              "internalType": "uint256",
              "name": "amountOut",
              "type": "uint256"
            },
            {
              "internalType": "uint160",
              "name": "sqrtPriceLimitX96",
              "type": "uint160"
            }
          ],
          "internalType": "struct ISwapRouter.QuoteExactOutputParams",
          "name": "params",
          "type": "tuple"
        }
      ],
      "name": "quoteExactOutput",
      "outputs": [
        {
          "internalType": "uint256",
          "name": "amountIn",
          "type": "uint256"
        }
      ],
      "stateMutability": "nonpayable",
      "type": "function"
    },
    {
      "inputs": [
        {
          "internalType": "int256",
          "name": "amount0Delta",
          "type": "int256"
        },
        {
          "internalType": "int256",
          "name": "amount1Delta",
          "type": "int256"
        },
        {
          "internalType": "bytes",
          "name": "data",
          "type": "bytes"
        }
      ],
      "name": "swapCallback",
      "outputs": [],
      "stateMutability": "nonpayable",
      "type": "function"
    },
    {
      "inputs": [
        {
          "internalType": "contract IPool",
          "name": "pool",
          "type": "address"
        },
        {
          "internalType": "address",
          "name": "recipient",
          "type": "address"
        },
        {
          "internalType": "bool",
          "name": "zeroForOne",
          "type": "bool"
        },
        {
          "internalType": "int256",
          "name": "amountSpecified",
          "type": "int256"
        },
        {
          "internalType": "uint160",
          "name": "sqrtPriceLimitX96",
          "type": "uint160"
        },
        {
          "internalType": "bytes",
          "name": "data",
          "type": "bytes"
        }
      ],
      "name": "swapInPool",
      "outputs": [
        {
          "internalType": "int256",
          "name": "amount0",
          "type": "int256"
        },
        {
          "internalType": "int256",
          "name": "amount1",
          "type": "int256"
        }
      ],
      "stateMutability": "nonpayable",
      "type": "function"
    }
  ],
  "transactionHash": "0xadf7a346cbf214ca2db9277fcad926047b0ce63ce373efc6a1fd3d924b0f1b20",
  "args": [
    "0x0e811D498E25EA01A52229dad2Fbb95636460895"
  ],
  "numDeployments": 1,
  "solcInputHash": "91fb65fde7a7cae1feab5ff71303a381",
  "bytecode": "0x608060405234801561001057600080fd5b506040516115ad3803806115ad83398101604081905261002f91610054565b600080546001600160a01b0319166001600160a01b0392909216919091179055610084565b60006020828403121561006657600080fd5b81516001600160a01b038116811461007d57600080fd5b9392505050565b61151a806100936000396000f3fe6080604052600436106100705760003560e01c8063a8a590fd1161004e578063a8a590fd146100f0578063ae5ab5e114610103578063dc4c90d314610123578063fa483e721461015b57600080fd5b80633439aade14610075578063393dd1da146100a85780636c207ad0146100dd575b600080fd5b34801561008157600080fd5b50610095610090366004610e1f565b61017d565b6040519081526020015b60405180910390f35b3480156100b457600080fd5b506100c86100c3366004610ecb565b6102bb565b6040805192835260208301919091520161009f565b6100956100eb366004610f76565b610389565b6100956100fe366004610f76565b610753565b34801561010f57600080fd5b5061009561011e366004610e1f565b610ac3565b34801561012f57600080fd5b50600054610143906001600160a01b031681565b6040516001600160a01b03909116815260200161009f565b34801561016757600080fd5b5061017b610176366004610fab565b610b91565b005b6040805161010081019091526000903090636c207ad090806101a26020870187610ffe565b6001600160a01b031681526020018560200160208101906101c39190610ffe565b6001600160a01b031681526020016101de6040870187611022565b808060200260200160405190810160405280939291908181526020018383602002808284376000920182905250938552505050602082015260400161022542610e10611082565b81526060808701356020830152600060408301520161024a60a0870160808801610ffe565b6001600160a01b03168152506040518263ffffffff1660e01b8152600401610272919061115e565b6020604051808303816000875af1158015610291573d6000803e3d6000fd5b505050506040513d601f19601f820116820180604052508101906102b59190611171565b92915050565b600080886001600160a01b031663128acb088989898989896040518763ffffffff1660e01b81526004016102f49695949392919061118a565b60408051808303816000875af192505050801561032e575060408051601f3d908101601f1916820190925261032b918101906111e7565b60015b610377573d80801561035c576040519150601f19603f3d011682016040523d82523d6000602084013e610361565b606091505b5061036b81610d66565b909350915061037d9050565b90925090505b97509795505050505050565b600060a0820135816103a16040850160208601610ffe565b6001600160a01b03166103b76020860186610ffe565b6001600160a01b031610905060005b6103d36040860186611022565b90508110156106b457600080546001600160a01b03166371c54fc96103fb6020890189610ffe565b61040b60408a0160208b01610ffe565b61041860408b018b611022565b878181106104285761042861120b565b905060200201602081019061043d919061123a565b6040518463ffffffff1660e01b815260040161045b93929190611255565b602060405180830381865afa158015610478573d6000803e3d6000fd5b505050506040513d601f19601f8201168201806040525081019061049c919061127e565b90506001600160a01b0381166104ea5760405162461bcd60e51b815260206004820152600e60248201526d141bdbdb081b9bdd08199bdd5b9960921b60448201526064015b60405180910390fd5b8060006104fa6020890189610ffe565b61050a60408a0160208b01610ffe565b61051760408b018b611022565b878181106105275761052761120b565b905060200201602081019061053c919061123a565b600061054e60808d0160608e01610ffe565b6001600160a01b0316146105625733610565565b60005b604080516001600160a01b0395861660208201529385169084015263ffffffff9091166060830152919091166080820152600160a082015260c00160408051601f1981840301815291905290506000803063393dd1da856105cc60808e0160608f01610ffe565b8a8c8f60e00160208101906105e19190610ffe565b896040518763ffffffff1660e01b8152600401610603969594939291906112eb565b60408051808303816000875af1158015610621573d6000803e3d6000fd5b505050506040513d601f19601f8201168201806040525081019061064591906111e7565b91509150866106545780610656565b815b610660908961133a565b975086610675576106708261134d565b61067e565b61067e8161134d565b610688908a611082565b98508760000361069c5750505050506106b4565b505050505080806106ac90611369565b9150506103c6565b508360c001358310156106fd5760405162461bcd60e51b815260206004820152601160248201527014db1a5c1c1859d948195e18d959591959607a1b60448201526064016104e1565b60408051821515815260a086013560208201529081018390526060810184905233907f176648f1f11cda284c124490086be42a926ddf0ae887ebe7b1d6b337d89427569060800160405180910390a25050919050565b600060a08201358161076b6040850160208601610ffe565b6001600160a01b03166107816020860186610ffe565b6001600160a01b031610905060005b61079d6040860186611022565b9050811015610a7a57600080546001600160a01b03166371c54fc96107c56020890189610ffe565b6107d560408a0160208b01610ffe565b6107e260408b018b611022565b878181106107f2576107f261120b565b9050602002016020810190610807919061123a565b6040518463ffffffff1660e01b815260040161082593929190611255565b602060405180830381865afa158015610842573d6000803e3d6000fd5b505050506040513d601f19601f82011682018060405250810190610866919061127e565b90506001600160a01b0381166108af5760405162461bcd60e51b815260206004820152600e60248201526d141bdbdb081b9bdd08199bdd5b9960921b60448201526064016104e1565b8060006108bf6020890189610ffe565b6108cf60408a0160208b01610ffe565b6108dc60408b018b611022565b878181106108ec576108ec61120b565b9050602002016020810190610901919061123a565b600061091360808d0160608e01610ffe565b6001600160a01b031614610927573361092a565b60005b604080516001600160a01b0395861660208201529385169084015263ffffffff909116606083015291909116608082015260a00160408051601f1981840301815291905290506000803063393dd1da8561098a60808e0160608f01610ffe565b8a6109948d61134d565b8f60e00160208101906109a79190610ffe565b896040518763ffffffff1660e01b81526004016109c9969594939291906112eb565b60408051808303816000875af11580156109e7573d6000803e3d6000fd5b505050506040513d601f19601f82011682018060405250810190610a0b91906111e7565b9150915086610a2257610a1d8261134d565b610a2b565b610a2b8161134d565b610a35908961133a565b975086610a425780610a44565b815b610a4e908a611082565b985087600003610a62575050505050610a7a565b50505050508080610a7290611369565b915050610790565b508360c001358311156106fd5760405162461bcd60e51b815260206004820152601160248201527014db1a5c1c1859d948195e18d959591959607a1b60448201526064016104e1565b604080516101008101909152600090309063a8a590fd9080610ae86020870187610ffe565b6001600160a01b03168152602001856020016020810190610b099190610ffe565b6001600160a01b03168152602001610b246040870187611022565b8080602002602001604051908101604052809392919081815260200183836020028082843760009201829052509385525050506020820152604001610b6b42610e10611082565b8152606080870135602083015260001960408301520161024a60a0870160808801610ffe565b600080808080610ba386880188611382565b600080546040516371c54fc960e01b8152969b509499509297509095509350916001600160a01b03909116906371c54fc990610be790899089908990600401611255565b602060405180830381865afa158015610c04573d6000803e3d6000fd5b505050506040513d601f19601f82011682018060405250810190610c28919061127e565b90506001600160a01b0381163314610c825760405162461bcd60e51b815260206004820152601760248201527f496e76616c69642063616c6c6261636b2063616c6c657200000000000000000060448201526064016104e1565b60008060008c13610c9c578a610c978d61134d565b610ca6565b8b610ca68c61134d565b90925090506001600160a01b038516610cd5578315610cca57604051818152602081fd5b604051828152602081fd5b8115610d58576040516323b872dd60e01b81526001600160a01b0386811660048301528481166024830152604482018490528916906323b872dd906064016020604051808303816000875af1158015610d32573d6000803e3d6000fd5b505050506040513d601f19601f82011682018060405250810190610d5691906113f1565b505b505050505050505050505050565b6000808251604014610dea57604483511015610db75760405162461bcd60e51b815260206004820152601060248201526f2ab732bc3832b1ba32b21032b93937b960811b60448201526064016104e1565b60048301925082806020019051810190610dd19190611424565b60405162461bcd60e51b81526004016104e191906114d1565b82806020019051810190610dfe91906111e7565b91509150915091565b600060a08284031215610e1957600080fd5b50919050565b600060208284031215610e3157600080fd5b813567ffffffffffffffff811115610e4857600080fd5b610e5484828501610e07565b949350505050565b6001600160a01b0381168114610e7157600080fd5b50565b8015158114610e7157600080fd5b60008083601f840112610e9457600080fd5b50813567ffffffffffffffff811115610eac57600080fd5b602083019150836020828501011115610ec457600080fd5b9250929050565b600080600080600080600060c0888a031215610ee657600080fd5b8735610ef181610e5c565b96506020880135610f0181610e5c565b95506040880135610f1181610e74565b9450606088013593506080880135610f2881610e5c565b925060a088013567ffffffffffffffff811115610f4457600080fd5b610f508a828b01610e82565b989b979a50959850939692959293505050565b60006101008284031215610e1957600080fd5b600060208284031215610f8857600080fd5b813567ffffffffffffffff811115610f9f57600080fd5b610e5484828501610f63565b60008060008060608587031215610fc157600080fd5b8435935060208501359250604085013567ffffffffffffffff811115610fe657600080fd5b610ff287828801610e82565b95989497509550505050565b60006020828403121561101057600080fd5b813561101b81610e5c565b9392505050565b6000808335601e1984360301811261103957600080fd5b83018035915067ffffffffffffffff82111561105457600080fd5b6020019150600581901b3603821315610ec457600080fd5b634e487b7160e01b600052601160045260246000fd5b808201808211156102b5576102b561106c565b80516001600160a01b039081168352602080830151909116818401526040808301516101009185018290528051918501829052600092610120860192918101918491905b808310156110ff57835163ffffffff1685529381019392810192600192909201916110d9565b50505050606083015161111d60608601826001600160a01b03169052565b506080830151608085015260a083015160a085015260c083015160c085015260e083015161115660e08601826001600160a01b03169052565b509392505050565b60208152600061101b6020830184611095565b60006020828403121561118357600080fd5b5051919050565b6001600160a01b0387811682528615156020830152604082018690528416606082015260a06080820181905281018290526000828460c0840137600060c0848401015260c0601f19601f8501168301019050979650505050505050565b600080604083850312156111fa57600080fd5b505080516020909101519092909150565b634e487b7160e01b600052603260045260246000fd5b803563ffffffff8116811461123557600080fd5b919050565b60006020828403121561124c57600080fd5b61101b82611221565b6001600160a01b03938416815291909216602082015263ffffffff909116604082015260600190565b60006020828403121561129057600080fd5b815161101b81610e5c565b60005b838110156112b657818101518382015260200161129e565b50506000910152565b600081518084526112d781602086016020860161129b565b601f01601f19169290920160200192915050565b6001600160a01b03878116825286811660208301528515156040830152606082018590528316608082015260c060a0820181905260009061132e908301846112bf565b98975050505050505050565b818103818111156102b5576102b561106c565b6000600160ff1b82016113625761136261106c565b5060000390565b60006001820161137b5761137b61106c565b5060010190565b600080600080600060a0868803121561139a57600080fd5b85356113a581610e5c565b945060208601356113b581610e5c565b93506113c360408701611221565b925060608601356113d381610e5c565b915060808601356113e381610e74565b809150509295509295909350565b60006020828403121561140357600080fd5b815161101b81610e74565b634e487b7160e01b600052604160045260246000fd5b60006020828403121561143657600080fd5b815167ffffffffffffffff8082111561144e57600080fd5b818401915084601f83011261146257600080fd5b8151818111156114745761147461140e565b604051601f8201601f19908116603f0116810190838211818310171561149c5761149c61140e565b816040528281528760208487010111156114b557600080fd5b6114c683602083016020880161129b565b979650505050505050565b60208152600061101b60208301846112bf56fea264697066735822122083288e6ee8373af4371067a6bfcd5dc7fd90bca99b92f4dda40b9d70780a401f64736f6c63430008140033",
  "devdoc": {
    "kind": "dev",
    "methods": {
      "quoteExactInput((address,address,uint32[],uint256,uint160))": {
        "details": ""
      }
    },
    "version": 1
  },
  "userdoc": {
    "kind": "user",
    "methods": {},
    "version": 1
  },
  "storageLayout": {
    "storage": [
      {
        "astId": 8883,
        "contract": "contracts/SwapRouter.sol:SwapRouter",
        "label": "poolManager",
        "offset": 0,
        "slot": "0",
        "type": "t_contract(IPoolManager)9861"
      }
    ],
    "types": {
      "t_contract(IPoolManager)9861": {
        "encoding": "inplace",
        "label": "contract IPoolManager",
        "numberOfBytes": "20"
      }
    }
  }
}